:020000040800F2
:1000000028050020450100084B0F0008070F0008D5
:10001000490F0008B1010008E111000800000000CC
:100020000000000000000000000000004F0F00086A
:10003000B3010008000000004D0F0008510F000838
:100040005F0100085F0100085F0100085F01000810
:100050005F0100085F0100085F0100085F01000800
:100060005F0100085F0100085F0100085F010008F0
:100070005F0100085F0100085F0100085F010008E0
:100080005F0100085F0100085F0100085F010008D0
:100090005F0100085F0100085F0100085F010008C0
:1000A0005F0100085F0100085F0100085F010008B0
:1000B0005F0100085F0100085F0100085F010008A0
:1000C0005F0100085F0100085F0100085F01000890
:1000D0005F0100089D1100085F0100085F01000832
:1000E0005F0100085F0100085F0100085F01000870
:1000F0005F0100085F0100085F0100085F01000860
:100100005F0100085F0100085F0100085F0100084F
:100110005F0100085F0100085F0100085F0100083F
:100120005F0100085F0100085F0100085F0100082F
:10013000DFF80CD000F02AF80048004769120008E8
:10014000280500200648804706480047FEE7FEE7EE
:10015000FEE7FEE7FEE7FEE7FEE7FEE7FEE7FEE777
:10016000B30F000831010008D2B201E000F8012B02
:10017000491EFBD270470022F6E710B513460A4627
:1001800004461946FFF7F0FF204610BD064C074D08
:1001900006E0E06840F0010394E807009847103457
:1001A000AC42F6D3FFF7C8FFC4120008E4120008FF
:1001B000FEE7704710B590F821100022022905D003
:1001C0000421816380F82020012010BD01680B68A4
:1001D00023F00E030B6001680B6823F001030B6032
:1001E00090F84030C46B012101FA03F3636080F89A
:1001F000211080F82020104610BD00002DE9F05F8E
:1002000090F821100024022903D0042181630124E5
:1002100085E001680A6822F00E020A6001680A6837
:1002200022F001020A603F4E3E4FB215DFF8F4C0E3
:10023000DFF8F090DFF8ECA0DFF8E8B0DFF8E4E0FA
:100240000168783F13011502ACF1640CA9F1500963
:10025000AAF13C0AABF1280BAEF1140E4FF4801852
:10026000B14227D9B9420ED0614512D049451DD0BF
:10027000514518D0594518D0714501D1424615E075
:10028000294EB14201D1012210E0274E1436B1426D
:1002900001D110220AE0244E2836B14206D0224A6B
:1002A0003C32914201D11A4600E02A461E49091FFC
:1002B0000A602BE0B94213D0614517D0494522D0DE
:1002C00051451DD059451DD0714501D142461AE016
:1002D000B14202D14FF0807215E0134EB14201D10C
:1002E000012210E0104E1436B14201D110220AE072
:1002F0000D4E2836B14206D00B4A3C32914201D114
:100300001A4600E02A46074980394A60012180F8F0
:100310002110002180F82010416B01B18847204650
:10032000BDE8F09F80000240080402402DE9F84F2C
:10033000DFF8C891002409F1040A0AF1040B2346EE
:100340000F270BF1040ED1E00125A54006EA0502B6
:10035000AA4276D1DFF8A8C14E68A6EB0C08664524
:100360002BD00DDC032E34D005DC36B3012E19D092
:10037000022E2FD11BE0112E16D0122E2AD119E0F9
:10038000B8F5881F19D006DCB8F5803F15D0B8F550
:10039000801F1FD111E0B8F5001F0ED0B8F5041F63
:1003A00018D10AE0CB6815E0CB681B1D12E0CB68C2
:1003B00008330FE0CB680C330CE08B682BB1012BBA
:1003C0004FF0080303D0456104E0042302E0056117
:1003D00000E00023FF2A01D8064601E000F10406F0
:1003E0004FEA840501D9A5F12005D6F8008007FA67
:1003F00005FC28EA0C0803FA05F548EA0508C6F8E2
:1004000000804D68ED0070D53E4DAE6946F00106A6
:10041000AE61AD6924F0030605F0010500953A4D83
:1004200006EB050CDCF80850A607360F07FA06F8AD
:1004300025EA0805DFF8D480404503D14FF00008D5
:1004400025E052E0DFF8C880404502D14FF00108B6
:100450001DE0DFF8C080404502D14FF0020816E0F1
:10046000DFF8B480404502D14FF003080FE0DFF819
:10047000AC80404502D14FF0040808E0DFF8A080CE
:10048000404502D14FF0050801E04FF0060808FA98
:1004900006F848EA0508CCF808804D68D9F80060ED
:1004A000ED034D4601D5164300E096432E604D689E
:1004B000DAF80060AD03554601D5164300E09643D7
:1004C0002E604D68DBF80060ED025D4601D51643F5
:1004D00000E096432E604D68DEF80060AD02754680
:1004E00001D5164300E096432E60641C0A68164648
:1004F000E2407FF429AFBDE8F88F0000000401401E
:1005000000001110001002400000014000080140EE
:10051000000C01400010014000140140001801408F
:10052000001C014001488068704700000000002066
:100530000248816802781144816070470000002001
:10054000074810B5016841F010010160032000F078
:1005500075F80F2000F006F800F024F8002010BD18
:100560000020024070B50D4D04464FF47A71287892
:10057000B1FBF0F00A490968B1FBF0F000F0ECFAC9
:1005800048B9102C07D200222146501E00F036F840
:1005900000206C6070BD012070BD000000000020D4
:1005A0000C0000200C4808B5816941F0010181610F
:1005B000816901F001010091C16941F08051C1617F
:1005C000C06900F0805000900448416821F0E0616B
:1005D00041F00071416008BD001002400000014080
:1005E000002809DB00F01F02012191404009800032
:1005F00000F1E020C0F8001170470000F0B40E4B8D
:100600001B680C46C3F30223C3F10705042D00D970
:100610000425191D072901D2002300E0DB1E012655
:1006200006FA05F1491E214099409E40761E16406B
:100630003143F0BC00F0DEBD0CED00E0064900F0F7
:10064000070208684FF6FF03184040EA0220034AF9
:1006500010430860704700000CED00E00000FA0550
:100660002DE9F0470F46050061D0434E306800F099
:100670000700B84209D2306820F0070038433060E4
:10068000306800F00700B84251D128683B4C810720
:1006900012D5400703D5606840F4E06060602878B8
:1006A000000703D5606840F4605060606068A96826
:1006B00020F0F000084360602878C00728D0686800
:1006C000012810D02168022810D0890700292EDACD
:1006D000616821F0030101436160FFF723FF804659
:1006E00041F288390DE021688903EFE78901EDE7E0
:1006F000FFF718FFA0EB0801494502D90320BDE828
:10070000F0876068696800F00C00B0EB810FEFD1F2
:10071000306800F00700B8420BD9306820F00700BD
:1007200038433060306800F00700B84201D0012043
:10073000E5E72878400705D56068E96820F4E060BF
:10074000084360602878000706D56068296920F4AE
:10075000605040EAC100606000F038F86168084A03
:10076000C1F30311515CC84006490860064800689F
:10077000FFF7F8FE0020C2E7002002400010024010
:10078000AC1200080C0000200400002004480549B9
:1007900000684968044AC1F30221515CC8407047AF
:1007A0000C00002000100240BC120008044805495B
:1007B00000684968044AC1F3C221515CC8407047CF
:1007C0000C00002000100240BC12000812A185B0ED
:1007D0000FC98DE80F0014A0144A006804905168F6
:1007E000134801F00C03042B10D0082B0ED1C1F3D9
:1007F0008343C9031DF803000AD5516804AAC1F355
:100800004041515C0A4A5043B0FBF1F005B07047DB
:1008100008494843FAE700000203040506070809EF
:100820000A0B0C0D0E0F1010010200000010024008
:1008300000127A0000093D002DE9F84F040070D045
:100840002078C04DC00749D06868C0F381000128F6
:1008500007D06868C0F38100022809D16868C00326
:1008600006D52868800339D560680028E7D035E0D0
:100870006068B0F5803F0BD010B1B0F5A02F11D05B
:10088000286820F480302860286820F4802002E066
:10089000286840F480302860606890B1FFF742FE1D
:1008A00006460AE0286840F480202860F0E700BF90
:1008B000FFF738FE801B642873D828688003F7D5BB
:1008C0000CE0FFF72FFE064605E000BFFFF72AFE0B
:1008D000801B6428F0D828688003F7D420789A4ECB
:1008E00080074FF001094FF0000839D5686810F013
:1008F0000C0F07D06868C0F38100022809D168682E
:10090000C00306D42868800714D52069012808D1BF
:1009100010E02069B0B1C6F80090FFF703FE07466B
:1009200005E00AE1FFF7FEFDC01B0228C4D82868D5
:100930008007F7D52868616920F0F80040EAC10017
:1009400028600DE0C6F80080FFF7ECFD074604E0E4
:10095000FFF7E8FDC01B022823D828688007F7D4DA
:10096000207800072CD57948A169D9B1C0F800904A
:10097000FFF7D8FD074604E0FFF7D4FDC01B0228AF
:100980000FD8686A8007F7D571484FF4FA510068AC
:10099000B0FBF1F0009000BF0098411E0091FAD228
:1009A0000EE080E0C0F80080FFF7BCFD074604E0E1
:1009B000FFF7B8FDC01B022875D8686A8007F7D416
:1009C0002078400760D5E8690027C00008D4E869AE
:1009D00040F08050E861E869012700F08050009005
:1009E0005C480168C90513D40168834641F48071ED
:1009F0000160FFF797FD824606E000BFFFF792FD1A
:100A0000A0EB0A0064284ED8DBF80000C005F5D53D
:100A1000E06801280AD008B1052813D0286A20F020
:100A200001002862286A20F0040002E0286A40F0F1
:100A300001002862E06841F2883B98B1FFF772FD3F
:100A400082460BE0286A40F004002862EEE700BF0F
:100A5000FFF768FDA0EB0A0159455AD8286A8007BC
:100A6000F6D50CE0FFF75EFD824605E0FFF75AFD84
:100A7000A0EB0A0159454CD8286A8007F6D41FB16B
:100A8000E86920F08050E861E06988B36968C1F3E3
:100A90008101022944D00228C6F8608004D0FFF703
:100AA00041FD044638E034E0FFF73CFD074604E032
:100AB000FFF738FDC01B02282BD828688001F7D427
:100AC000206AB0F5803F05D16868A16820F4003045
:100AD00008436860D4E908010843696821F4741187
:100AE00008436860C6F86090FFF71CFD044606E006
:100AF00025E000BFFFF716FD001B022809D8286873
:100B00008001F7D51BE000BFFFF70CFD001B02289A
:100B100002D90320BDE8F88F28688001F4D40EE0E4
:100B20000128F7D06868226A00F48031914204D12C
:100B3000616A00F47010884201D00120EAE70020C9
:100B4000E8E70000001002400000424280044242F8
:100B50000C0000200070004010B5401EB0F1807FF6
:100B600001D3012010BD4FF0E02460610F21601718
:100B700000F040FB0020A06107202061002010BD94
:100B80007047704710F83D1F4078084370470000D9
:100B9000F8B5026804461068D168536910F00F0F69
:100BA0004FF0000553D003F0010601F4907737436E
:100BB0005FD0C20705D0CA0503D5226C42F00102FE
:100BC0002264420705D5DA0703D0226C42F0020204
:100BD0002264820705D5DA0703D0226C42F00402B2
:100BE0002264020707D501F02002324303D0226CB1
:100BF00042F008022264226C002A34D0800604D518
:100C0000880602D5204600F0F5F920684069216C7D
:100C1000C0F38010090700D430B3204600F0D2F9A9
:100C20002068416949061BD5416921F040014161B5
:100C3000A06BA8B158494163A06BFFF7DFFA002809
:100C400011D0A06B416B01B0BDE8F04008478306AE
:100C50000FD58B060DD52046BDE8F84000F0CAB987
:100C60002046FFF78EFFF8BD2046FFF78AFF256478
:100C7000F8BD266B2023012E52D1C60650D5CE06D4
:100C80004ED5106850680090506940062AD5A16B77
:100C9000086840680004000CEAD0A68D8642E7D9B7
:100CA000E0858869202818D0D06820F48070D06052
:100CB0002068416921F0010141612068416921F00A
:100CC0004001416184F83E3025632068C16821F00D
:100CD0001001C160A06BFFF76DFAA08DE18D401A85
:100CE00081B219E0A08DE18D401A81B2E08D00281B
:100CF000BED00029BCD0D06820F49070D0602068AD
:100D0000426922F00102426184F83E302563206886
:100D1000C26822F01002C2602046FFF731FFF8BD22
:100D200005062BD50D0629D594F83D002128F6D1CE
:100D3000A068B0F5805F01D12069B0B1206A411C84
:100D40002162216800784860E08C401E0004000C9D
:100D5000E084E4D12068C16821F08001C16020688E
:100D6000C16841F04001C160F8BD206A0088C0F34D
:100D700008005060206A801C2062E5E74006F3D539
:100D80004806F1D5D168204621F04001D16084F8B1
:100D90003D3000F0B7F8F8BDB50F000870B504009D
:100DA00004D094F83D00002510B106E0012070BD8C
:100DB00084F83C50204600F023F8242084F83D00BD
:100DC0002068C16821F40051C160204600F06EF92E
:100DD0002068016921F4904101612068416921F096
:100DE0002A0141612068C16841F40051C160256455
:100DF000202084F83D0084F83E00002070BD0000F3
:100E000030B585B0002400940194029403940068E6
:100E1000184988422CD11848816941F48041816188
:100E2000816901F480410491816941F0040181618B
:100E30008069124D00F0040004904FF4007000909F
:100E4000022001900320039069462846FFF76EFABE
:100E50002815CDE90004694628460294FFF766FA92
:100E6000002211462520FFF7C9FB2520FFF7B8FB1C
:100E700005B030BD003801400010024000080140BC
:100E800090F83E30202B0ED159B152B190F83C3041
:100E9000012B08D0012380F83C300023036300F0CD
:100EA00061B90120704702207047000030B500682A
:100EB000114988420CD1114841880A0408D40246DD
:100EC0004C0412784FF0000306D50A2A01D0438063
:100ED00030BD41F400410DE00D2A09D0C1F30D04ED
:100EE000074D491C89B22A554180C729EFD830BD2A
:100EF00041F48041418030BD0038014010000020A5
:100F00005C0000207047FEE710B50E4C0C480C2129
:100F100020604FF4E13060600020A060E060C4E930
:100F20000401A061E0612046FFF738FF08B172B606
:100F3000FEE72068C16841F02001C16010BD0000DB
:100F40000038014018000020FEE7FEE770477047B8
:100F5000FFF7EEBA30B58FB028216846FFF70BF9DE
:100F600014210AA8FFF707F901210804CDE90010B0
:100F70000024029402250491CDE907504FF4E010BB
:100F800009906846FFF758FC08B172B6FEE70F20DB
:100F9000CDE90A054FF48060CDE90C4002210AA892
:100FA0000E94FFF75DFB002801D072B6FEE70FB08C
:100FB00030BD704710B5406A0021C185C184FFF77C
:100FC000E0FD10BD0168CA6822F49072CA60016831
:100FD0004A6922F001024A61016B012904D10168CA
:100FE000CA6822F01002CA60202180F83E10002159
:100FF0000163704708B590F83E10222901D0022005
:1010000008BD82684FF480539A4201D1016921B131
:10101000816A9A421BD04AB10AE00268816A52682A
:10102000C2F308020A80816A891C08E0026972B171
:101030000268526802F07F020A70816A491C81626C
:10104000C18D491E0904090CC18503D019E002684D
:101050005268F1E70168CA6822F02002CA6001689C
:10106000CA6822F48072CA6001684A6922F00102EB
:101070004A61202180F83E10016B012903D0FFF75F
:1010800015FF002008BD002101630168CA6822F035
:101090001002CA6001680A68D20602D50A68496867
:1010A0000091818DFFF76CFDEBE7000070B5044601
:1010B00000680169E26821F440511143016121692E
:1010C000A0680843616908432168CA6841F20C635B
:1010D0009A430243CA6020684169A26921F44071C1
:1010E000114341611E492068884202D1FFF75EFB2F
:1010F00001E0FFF74BFB00EBC00101EB0012606861
:1011000064218000B2FBF0F3B3FBF1F36FF018063B
:101110007343B2FBF0F5B2FBF0F605EB8305322327
:1011200003EB0515B5FBF1F5B6FBF1F605F0F0059F
:1011300005EB0615B2FBF0F6B2FBF0F0B0FBF1F0F8
:101140006FF01802504306EB800003EB0010B0FB79
:10115000F1F0216800F00F002844886070BD0000A5
:101160000038014081628285C2850021016422220B
:1011700080F83E2080F83C100168CA6842F4807212
:10118000CA6001684A6942F001024A610068C168A8
:1011900041F02001C16000207047000070B50024BC
:1011A0000C4D0D48FFF7F4FC02E0641CAC4204D87F
:1011B0000948FFF7E7FC2028F7D1002402E0641C6F
:1011C000AC4206D8012205490348FFF759FE002822
:1011D000F5D170BDFFFF01001800002010000020B5
:1011E000FEE70000014A024900F023B8551200084A
:1011F000140000200907090E002804DB00F1E0209C
:1012000080F80014704700F00F0000F1E02080F833
:10121000141D704702E008C8121F08C1002AFAD145
:1012200070477047002001E001C1121F002AFBD166
:1012300070472DE9F04116460F460446002503E0AD
:101240003946B047641C6D1C20780028F8D1284628
:10125000BDE8F08138B504468DF8000069460320EA
:10126000ABBE204638BD000008B5FFF769F9FFF7AF
:1012700071FE0B48816941F010018161816901F0C3
:1012800010010091816941F004018161806900F0E1
:1012900004000090FFF738FE02A0FFF7A3FFFEE76F
:1012A00000100240BFAABBFA0A00000000000000C4
:1012B0000000000001020304060708090000000006
:1012C00001020304E41200080000002018000000DE
:1012D00014120008FC12000818000020100500007D
:1012E00024120008010000001000000000000000AF
:0C12F0000024F4000000000000000000DA
:0400000508000131BD
:00000001FF
