:020000040800F2
:100000005804002045010008E30B00089F0B00087E
:10001000E10B0008B1010008810D0008000000009C
:10002000000000000000000000000000E70B0008D6
:10003000B301000800000000E50B0008E90B000810
:100040005F0100085F0100085F0100085F01000810
:100050005F0100085F0100085F0100085F01000800
:100060005F0100085F0100085F0100085F010008F0
:100070005F0100085F0100085F0100085F010008E0
:100080005F0100085F0100085F0100085F010008D0
:100090005F0100085F0100085F0100085F010008C0
:1000A0005F0100085F0100085F0100085F010008B0
:1000B0005F0100085F0100085F0100085F010008A0
:1000C0005F0100085F0100085F0100085F01000890
:1000D0005F010008690D00085F0100085F0100086A
:1000E0005F0100085F0100085F0100085F01000870
:1000F0005F0100085F0100085F0100085F01000860
:100100005F0100085F0100085F0100085F0100084F
:100110005F0100085F0100085F0100085F0100083F
:100120005F0100085F0100085F0100085F0100082F
:10013000DFF80CD000F02AF8004800470D0E000848
:10014000580400200648804706480047FEE7FEE7BF
:10015000FEE7FEE7FEE7FEE7FEE7FEE7FEE7FEE777
:100160004B0C000831010008D2B201E000F8012B6D
:10017000491EFBD270470022F6E710B513460A4627
:1001800004461946FFF7F0FF204610BD064C074D08
:1001900006E0E06840F0010394E807009847103457
:1001A000AC42F6D3FFF7C8FF680E0008880E0008BF
:1001B000FEE770472DE9F84FDFF8C891002409F1F8
:1001C000040A0AF1040B23460F270BF1040ED1E0B9
:1001D0000125A54006EA0502AA4276D1DFF8A8C1AA
:1001E0004E68A6EB0C0866452BD00DDC032E34D0F0
:1001F00005DC36B3012E19D0022E2FD11BE0112EB3
:1002000016D0122E2AD119E0B8F5881F19D006DCB5
:10021000B8F5803F15D0B8F5801F1FD111E0B8F5B3
:10022000001F0ED0B8F5041F18D10AE0CB6815E006
:10023000CB681B1D12E0CB6808330FE0CB680C3392
:100240000CE08B682BB1012B4FF0080303D0456104
:1002500004E0042302E0056100E00023FF2A01D846
:10026000064601E000F104064FEA840501D9A5F134
:100270002005D6F8008007FA05FC28EA0C0803FAE6
:1002800005F548EA0508C6F800804D68ED0070D510
:100290003E4DAE6946F00106AE61AD6924F003063D
:1002A00005F0010500953A4D06EB050CDCF8085009
:1002B000A607360F07FA06F825EA0805DFF8D48006
:1002C000404503D14FF0000825E052E0DFF8C88038
:1002D000404502D14FF001081DE0DFF8C0804045E5
:1002E00002D14FF0020816E0DFF8B480404502D199
:1002F0004FF003080FE0DFF8AC80404502D14FF02B
:10030000040808E0DFF8A080404502D14FF005085E
:1003100001E04FF0060808FA06F848EA0508CCF8AC
:1003200008804D68D9F80060ED034D4601D51643AD
:1003300000E096432E604D68DAF80060AD03554644
:1003400001D5164300E096432E604D68DBF800604F
:10035000ED025D4601D5164300E096432E604D68E0
:10036000DEF80060AD02754601D5164300E0964305
:100370002E60641C0A681646E2407FF429AFBDE88F
:10038000F88F00000004014000001110001002402E
:100390000000014000080140000C01400010014035
:1003A0000014014000180140001C01400148806811
:1003B0007047000000000020024881680278114464
:1003C0008160704700000020074810B5016841F0C7
:1003D00010010160032000F075F80F2000F006F80E
:1003E00000F024F8002010BD0020024070B50D4D33
:1003F00004464FF47A712878B1FBF0F00A49096895
:10040000B1FBF0F000F0ECFA48B9102C07D2002252
:100410002146501E00F036F800206C6070BD0120AF
:1004200070BD0000000000200C0000200C4808B542
:10043000816941F001018161816901F0010100914F
:10044000C16941F08051C161C06900F080500090E5
:100450000448416821F0E06141F00071416008BD4D
:100460000010024000000140002809DB00F01F02DC
:10047000012191404009800000F1E020C0F8001106
:1004800070470000F0B40E4B1B680C46C3F3022308
:10049000C3F10705042D00D90425191D072901D230
:1004A000002300E0DB1E012606FA05F1491E21406B
:1004B00099409E40761E16403143F0BC00F06ABC65
:1004C0000CED00E0064900F0070208684FF6FF0354
:1004D000184040EA0220034A1043086070470000B9
:1004E0000CED00E00000FA052DE9F0470F4605008D
:1004F00061D0434E306800F00700B84209D230683E
:1005000020F0070038433060306800F00700B84240
:1005100051D128683B4C810712D5400703D560684C
:1005200040F4E06060602878000703D5606840F41C
:10053000605060606068A96820F0F0000843606067
:100540002878C00728D06868012810D021680228C0
:1005500010D0890700292EDA616821F003010143D8
:100560006160FFF723FF804641F288390DE0216882
:100570008903EFE78901EDE7FFF718FFA0EB08011A
:10058000494502D90320BDE8F0876068696800F03A
:100590000C00B0EB810FEFD1306800F00700B842DB
:1005A0000BD9306820F0070038433060306800F025
:1005B0000700B84201D00120E5E72878400705D5BB
:1005C0006068E96820F4E06008436060287800070C
:1005D00006D56068296920F4605040EAC100606077
:1005E00000F038F86168084AC1F30311515CC84053
:1005F0000649086006480068FFF7F8FE0020C2E7D9
:100600000020024000100240500E00080C000020A4
:10061000040000200448054900684968044AC1F301
:100620000221515CC84070470C00002000100240BD
:10063000600E00080448054900684968044AC1F38F
:10064000C221515CC84070470C00002000100240DD
:10065000600E000812A185B00FC98DE80F0014A02C
:10066000144A006804905168134801F00C03042BED
:1006700010D0082B0ED1C1F38343C9031DF803002A
:100680000AD5516804AAC1F34041515C0A4A50435B
:10069000B0FBF1F005B0704708494843FAE70000A5
:1006A00002030405060708090A0B0C0D0E0F1010B3
:1006B000010200000010024000127A0000093D0013
:1006C0002DE9F84F040070D02078C04DC00749D004
:1006D0006868C0F38100012807D06868C0F3810012
:1006E000022809D16868C00306D52868800339D577
:1006F00060680028E7D035E06068B0F5803F0BD037
:1007000010B1B0F5A02F11D0286820F480302860F7
:10071000286820F4802002E0286840F480302860B7
:10072000606890B1FFF742FE06460AE0286840F490
:1007300080202860F0E700BFFFF738FE801B6428A8
:1007400073D828688003F7D50CE0FFF72FFE064624
:1007500005E000BFFFF72AFE801B6428F0D8286858
:100760008003F7D420789A4E80074FF001094FF0AC
:10077000000839D5686810F00C0F07D06868C0F31E
:100780008100022809D16868C00306D42868800760
:1007900014D52069012808D110E02069B0B1C6F84D
:1007A0000090FFF703FE074605E00AE1FFF7FEFDB4
:1007B000C01B0228C4D828688007F7D5286861695B
:1007C00020F0F80040EAC10028600DE0C6F8008083
:1007D000FFF7ECFD074604E0FFF7E8FDC01B022829
:1007E00023D828688007F7D4207800072CD57948CB
:1007F000A169D9B1C0F80090FFF7D8FD074604E021
:10080000FFF7D4FDC01B02280FD8686A8007F7D510
:1008100071484FF4FA510068B0FBF1F0009000BF4E
:100820000098411E0091FAD20EE080E0C0F80080EE
:10083000FFF7BCFD074604E0FFF7B8FDC01B022828
:1008400075D8686A8007F7D42078400760D5E869D2
:100850000027C00008D4E86940F08050E861E869EA
:10086000012700F0805000905C480168C90513D44E
:100870000168834641F480710160FFF797FD82466D
:1008800006E000BFFFF792FDA0EB0A0064284ED8F7
:10089000DBF80000C005F5D5E06801280AD008B1F2
:1008A000052813D0286A20F001002862286A20F069
:1008B000040002E0286A40F001002862E06841F28A
:1008C000883B98B1FFF772FD82460BE0286A40F042
:1008D00004002862EEE700BFFFF768FDA0EB0A0105
:1008E00059455AD8286A8007F6D50CE0FFF75EFD17
:1008F000824605E0FFF75AFDA0EB0A0159454CD8A6
:10090000286A8007F6D41FB1E86920F08050E861BA
:10091000E06988B36968C1F38101022944D00228E3
:10092000C6F8608004D0FFF741FD044638E034E0AB
:10093000FFF73CFD074604E0FFF738FDC01B022827
:100940002BD828688001F7D4206AB0F5803F05D104
:100950006868A16820F4003008436860D4E90801A1
:100960000843696821F4741108436860C6F8609010
:10097000FFF71CFD044606E025E000BFFFF716FD6B
:10098000001B022809D828688001F7D51BE000BFAA
:10099000FFF70CFD001B022802D90320BDE8F88FE9
:1009A00028688001F4D40EE00128F7D06868226A34
:1009B00000F48031914204D1616A00F470108842E1
:1009C00001D00120EAE70020E8E700000010024023
:1009D00000004242800442420C00002000700040AF
:1009E00010B5401EB0F1807F01D3012010BD4FF043
:1009F000E02460610F21601700F0CCF90020A061B5
:100A000007202061002010BD70B5040004D094F8C8
:100A10003D00002510B106E0012070BD84F83C5077
:100A2000204600F023F8242084F83D002068C168A7
:100A300021F40051C160204600F008F920680169E6
:100A400021F4904101612068416921F02A0141614E
:100A50002068C16841F40051C1602564202084F8F9
:100A60003D0084F83E00002070BD000030B585B028
:100A70000024009401940294039400681849884269
:100A80002CD11848816941F480418161816901F468
:100A900080410491816941F0040181618069124DB6
:100AA00000F0040004904FF40070009002200190C8
:100AB0000320039069462846FFF77CFB2815CDE903
:100AC0000004694628460294FFF774FB0022114691
:100AD0002520FFF7D7FC2520FFF7C6FC05B030BD69
:100AE0000038014000100240000801402DE9F843A1
:100AF000044690F83D001F4616460D4620284CD16E
:100B0000C5B1BEB194F83C00012846D0012084F85C
:100B10003C004FF00008C4F84080212084F83D00DC
:100B2000FFF744FCA6848146E684A068B0F5805FA8
:100B300003D004E00120BDE8F883206928B12E46E7
:100B40005FF0000584F83C800EE00026FAE7802183
:100B5000204600F0D7F8A0B9AEB116F8010B216815
:100B60004860E08C401EE084E08C4B464FF0000271
:100B700000970028EBD14FF04001204600F0C2F86A
:100B800030B10320D7E735F8020BC0F30800E6E7E1
:100B9000202084F83D000020CDE70220CBE7FEE7CF
:100BA00010B50E4C0C480C2120604FF4E130606011
:100BB0000020A060E060C4E90401A061E06120467B
:100BC000FFF722FF08B172B6FEE72068C16841F066
:100BD0002001C16010BD0000003801401400002059
:100BE000FEE7FEE770477047FFF7E6BB30B58FB012
:100BF00028216846FFF7BFFA14210AA8FFF7BBFABD
:100C000001210804CDE9001000240294022504917A
:100C1000CDE907504FF4E01009906846FFF750FD0A
:100C200008B172B6FEE70F20CDE90A054FF48060E7
:100C3000CDE90C4002210AA80E94FFF755FC0028CC
:100C400001D072B6FEE70FB030BD704770B50446F4
:100C500000680169E26821F4405111430161216992
:100C6000A0680843616908432168CA6841F20C63BF
:100C70009A430243CA6020684169A26921F4407125
:100C8000114341611E492068884202D1FFF7D2FC1E
:100C900001E0FFF7BFFC00EBC00101EB0012606850
:100CA00064218000B2FBF0F3B3FBF1F36FF01806A0
:100CB0007343B2FBF0F5B2FBF0F605EB830532238C
:100CC00003EB0515B5FBF1F5B6FBF1F605F0F00504
:100CD00005EB0615B2FBF0F6B2FBF0F0B0FBF1F05D
:100CE0006FF01802504306EB800003EB0010B0FBDE
:100CF000F1F0216800F00F002844886070BD00000A
:100D0000003801402DE9F041984617460E4604464A
:100D1000069D1DE0681C1BD02DB1FFF747FBA0EB23
:100D20000800A84214D92068C16821F4D071C160BC
:100D30002068416921F001014161202084F83D00D3
:100D400084F83E00002084F83C000320BDE8F081D8
:100D50002068006836EA000004D00020B842D9D0EC
:100D60000020F3E70120F9E7044800680168C9435F
:100D7000890602D44168C9B241607047140000205E
:100D8000FEE70000014A024900F023B8F50D000813
:100D9000100000200907090E002804DB00F1E02004
:100DA00080F80014704700F00F0000F1E02080F898
:100DB000141D704702E008C8121F08C1002AFAD1AA
:100DC00070477047002001E001C1121F002AFBD1CB
:100DD00070472DE9F04116460F460446002503E012
:100DE0003946B047641C6D1C20780028F8D128468D
:100DF000BDE8F08113B54FF47A73012269460248C9
:100E0000FFF774FE00981CBD1400002008B5FFF722
:100E1000DBFAFFF7EBFE0B48816941F010018161BD
:100E2000816901F010010091816941F00401816143
:100E3000806900F004000090FFF7B2FE02A0FFF707
:100E4000A1FFFEE700100240BFAABBFA0A000000A3
:100E5000000000000000000001020304060708096A
:100E60000000000001020304880E000800000020BA
:100E700014000000B40D00089C0E000814000020AF
:100E800044040000C40D0008010000001000000030
:0C0E9000000000000024F400000000003E
:0400000508000131BD
:00000001FF
