:020000040800F2
:10000000C804002045010008A71300085D1300087C
:10001000A513000871020008AD19000800000000D7
:10002000000000000000000000000000F1160008C1
:100030007302000800000000A9130008F31600086E
:100040005F0100085F0100085F0100085F01000810
:100050005F0100085F0100085F0100085F01000800
:100060005F0100085F0100085F0100085F010008F0
:100070005F0100085F0100085F0100085F010008E0
:100080005F0100085F0100085F0100085F010008D0
:100090005F0100085F0100085F0100085F010008C0
:1000A0005F0100085F0100085F0100085F010008B0
:1000B0005F0100085F0100085F0100085F010008A0
:1000C0005F0100085F0100085F0100085F01000890
:1000D0005F010008A11900085F0100085F01000826
:1000E0005F0100085F0100085F0100085F01000870
:1000F0005F0100085F0100085F0100085F01000860
:100100005F0100085F0100085F0100085F0100084F
:100110005F0100085F0100085F0100085F0100083F
:100120005F0100085F0100085F0100085F0100082F
:10013000DFF80CD000F06CF800480047E91C00081C
:10014000C80400200648804706480047FEE7FEE74F
:10015000FEE7FEE7FEE7FEE7FEE7FEE7FEE7FEE777
:100160005517000831010008202A04DB203A21FA43
:1001700002F00021704721FA02F3D040C2F12002C0
:100180009140084319467047D2B201E000F8012BB4
:10019000491EFBD270470022F6E710B513460A4607
:1001A00004461946FFF7F0FF204610BD2DE9F05F29
:1001B0000546002092469B468846064681464024D6
:1001C0001BE02846414647462246FFF7CDFF5346EF
:1001D0005A46C01A914110D311461846224600F0E3
:1001E00029F82D1A67EB01084F462246012000210D
:1001F00000F020F817EB00094E41201EA4F1010485
:10020000DFDC484631462A464346BDE8F09F000001
:10021000064C074D06E0E06840F0010394E8070053
:1002200098471034AC42F6D3FFF786FF5C1E0008F7
:100230007C1E0008202A04DB203A00FA02F100208C
:1002400070479140C2F1200320FA03F31943904014
:10025000704710B507E003780C78A34201D0002066
:1002600010BD401C491C521E92B2F4D2012010BD98
:10027000FEE7704710B590F821100022022905D042
:100280000421816380F82020012010BD01680B68E3
:1002900023F00E030B6001680B6823F001030B6071
:1002A00090F84030C46B012101FA03F3636080F8D9
:1002B000211080F82020104610BD00002DE9F05FCD
:1002C00090F821100024022903D004218163012425
:1002D00085E001680A6822F00E020A6001680A6877
:1002E00022F001020A603F4E3E4FB215DFF8F4C023
:1002F000DFF8F090DFF8ECA0DFF8E8B0DFF8E4E03A
:100300000168783F13011502ACF1640CA9F15009A2
:10031000AAF13C0AABF1280BAEF1140E4FF4801891
:10032000B14227D9B9420ED0614512D049451DD0FE
:10033000514518D0594518D0714501D1424615E0B4
:10034000294EB14201D1012210E0274E1436B142AC
:1003500001D110220AE0244E2836B14206D0224AAA
:100360003C32914201D11A4600E02A461E49091F3B
:100370000A602BE0B94213D0614517D0494522D01D
:1003800051451DD059451DD0714501D142461AE055
:10039000B14202D14FF0807215E0134EB14201D14B
:1003A000012210E0104E1436B14201D110220AE0B1
:1003B0000D4E2836B14206D00B4A3C32914201D153
:1003C0001A4600E02A46074980394A60012180F830
:1003D0002110002180F82010416B01B18847204690
:1003E000BDE8F09F80000240080402402DE9F84F6C
:1003F000DFF8C891002409F1040A0AF1040B23462E
:100400000F270BF1040ED1E00125A54006EA0502F5
:10041000AA4276D1DFF8A8C14E68A6EB0C08664563
:100420002BD00DDC032E34D005DC36B3012E19D0D1
:10043000022E2FD11BE0112E16D0122E2AD119E038
:10044000B8F5881F19D006DCB8F5803F15D0B8F58F
:10045000801F1FD111E0B8F5001F0ED0B8F5041FA2
:1004600018D10AE0CB6815E0CB681B1D12E0CB6801
:1004700008330FE0CB680C330CE08B682BB1012BF9
:100480004FF0080303D0456104E0042302E0056156
:1004900000E00023FF2A01D8064601E000F104062F
:1004A0004FEA840501D9A5F12005D6F8008007FAA6
:1004B00005FC28EA0C0803FA05F548EA0508C6F821
:1004C00000804D68ED0070D53E4DAE6946F00106E6
:1004D000AE61AD6924F0030605F0010500953A4DC3
:1004E00006EB050CDCF80850A607360F07FA06F8ED
:1004F00025EA0805DFF8D480404503D14FF0000815
:1005000025E052E0DFF8C880404502D14FF00108F5
:100510001DE0DFF8C080404502D14FF0020816E030
:10052000DFF8B480404502D14FF003080FE0DFF858
:10053000AC80404502D14FF0040808E0DFF8A0800D
:10054000404502D14FF0050801E04FF0060808FAD7
:1005500006F848EA0508CCF808804D68D9F800602C
:10056000ED034D4601D5164300E096432E604D68DD
:10057000DAF80060AD03554601D5164300E0964316
:100580002E604D68DBF80060ED025D4601D5164334
:1005900000E096432E604D68DEF80060AD027546BF
:1005A00001D5164300E096432E60641C0A68164687
:1005B000E2407FF429AFBDE8F88F0000000401405D
:1005C000000011100010024000000140000801402E
:1005D000000C0140001001400014014000180140CF
:1005E000001C01400AB1016170470904FBE70000EB
:1005F00001488068704700000C00002002488168B4
:1006000002781144816070470C000020074810B543
:10061000016841F010010160032000F075F80F201F
:1006200000F006F800F024F8002010BD0020024081
:1006300070B50D4D04464FF47A712878B1FBF0F097
:100640000A490968B1FBF0F000F06FFC48B9102CC2
:1006500007D200222146501E00F036F800206C60C0
:1006600070BD012070BD00000C00002018000020AB
:100670000C4808B5816941F001018161816901F08F
:1006800001010091C16941F08051C161C06900F070
:10069000805000900448416821F0E06141F0007111
:1006A000416008BD0010024000000140002809DB45
:1006B00000F01F02012191404009800000F1E0207C
:1006C000C0F8001170470000F0B40E4B1B680C46D8
:1006D000C3F30223C3F10705042D00D90425191D16
:1006E000072901D2002300E0DB1E012606FA05F1EE
:1006F000491E214099409E40761E16403143F0BC71
:1007000001F066B90CED00E0064900F00702086848
:100710004FF6FF03184040EA0220034A10430860E6
:10072000704700000CED00E00000FA052DE9F047ED
:100730000F46050061D0434E306800F00700B84214
:1007400009D2306820F0070038433060306800F08C
:100750000700B84251D128683B4C810712D54007A9
:1007600003D5606840F4E06060602878000703D536
:10077000606840F4605060606068A96820F0F00034
:10078000084360602878C00728D06868012810D026
:100790002168022810D0890700292EDA616821F02B
:1007A000030101436160FFF723FF804641F288396E
:1007B0000DE021688903EFE78901EDE7FFF718FFF6
:1007C000A0EB0801494502D90320BDE8F087606825
:1007D000696800F00C00B0EB810FEFD1306800F0D9
:1007E0000700B8420BD9306820F00700384330606A
:1007F000306800F00700B84201D00120E5E7287812
:10080000400705D56068E96820F4E060084360604F
:100810002878000706D56068296920F4605040EA0E
:10082000C100606000F038F86168084AC1F3031144
:10083000515CC8400649086006480068FFF7F8FEAA
:100840000020C2E70020024000100240441E0008C1
:10085000180000201000002004480549006849687D
:10086000044AC1F30221515CC840704718000020BF
:1008700000100240541E00080448054900684968F9
:10088000044AC1F3C221515CC840704718000020DF
:1008900000100240541E000812A185B00FC98DE857
:1008A0000F0014A0144A006804905168134801F026
:1008B0000C03042B10D0082B0ED1C1F38343C903C2
:1008C0001DF803000AD5516804AAC1F34041515CE8
:1008D0000A4A5043B0FBF1F005B07047084948435D
:1008E000FAE7000002030405060708090A0B0C0DCD
:1008F0000E0F1010010200000010024000127A00DA
:1009000000093D002DE9F84F040070D02078C04D5B
:10091000C00749D06868C0F38100012807D0686823
:10092000C0F38100022809D16868C00306D5286891
:10093000800339D560680028E7D035E06068B0F5FD
:10094000803F0BD010B1B0F5A02F11D0286820F453
:1009500080302860286820F4802002E0286840F475
:1009600080302860606890B1FFF742FE06460AE0DA
:10097000286840F480202860F0E700BFFFF738FEC9
:10098000801B642873D828688003F7D50CE0FFF734
:100990002FFE064605E000BFFFF72AFE801B6428F5
:1009A000F0D828688003F7D420789A4E80074FF05B
:1009B00001094FF0000839D5686810F00C0F07D016
:1009C0006868C0F38100022809D16868C00306D4B2
:1009D0002868800714D52069012808D110E0206913
:1009E000B0B1C6F80090FFF703FE074605E00AE144
:1009F000FFF7FEFDC01B0228C4D828688007F7D582
:100A00002868616920F0F80040EAC10028600DE024
:100A1000C6F80080FFF7ECFD074604E0FFF7E8FDAD
:100A2000C01B022823D828688007F7D42078000745
:100A30002CD57948A169D9B1C0F80090FFF7D8FD4D
:100A4000074604E0FFF7D4FDC01B02280FD8686AF0
:100A50008007F7D571484FF4FA510068B0FBF1F008
:100A6000009000BF0098411E0091FAD20EE080E095
:100A7000C0F80080FFF7BCFD074604E0FFF7B8FDB3
:100A8000C01B022875D8686A8007F7D42078400711
:100A900060D5E8690027C00008D4E86940F08050BC
:100AA000E861E869012700F0805000905C48016827
:100AB000C90513D40168834641F480710160FFF7D2
:100AC00097FD824606E000BFFFF792FDA0EB0A000B
:100AD00064284ED8DBF80000C005F5D5E068012891
:100AE0000AD008B1052813D0286A20F00100286236
:100AF000286A20F0040002E0286A40F00100286221
:100B0000E06841F2883B98B1FFF772FD82460BE046
:100B1000286A40F004002862EEE700BFFFF768FD96
:100B2000A0EB0A0159455AD8286A8007F6D50CE08F
:100B3000FFF75EFD824605E0FFF75AFDA0EB0A01D4
:100B400059454CD8286A8007F6D41FB1E86920F0CF
:100B50008050E861E06988B36968C1F381010229C6
:100B600044D00228C6F8608004D0FFF741FD044657
:100B700038E034E0FFF73CFD074604E0FFF738FDBE
:100B8000C01B02282BD828688001F7D4206AB0F552
:100B9000803F05D16868A16820F400300843686090
:100BA000D4E908010843696821F4741108436860B6
:100BB000C6F86090FFF71CFD044606E025E000BF84
:100BC000FFF716FD001B022809D828688001F7D519
:100BD0001BE000BFFFF70CFD001B022802D9032019
:100BE000BDE8F88F28688001F4D40EE00128F7D022
:100BF0006868226A00F48031914204D1616A00F48D
:100C00007010884201D00120EAE70020E8E70000E8
:100C100000100240000042428004424218000020BE
:100C20000070004070B5040009D0606A002540B132
:100C300025616561A56294F8510040B10CE0012086
:100C400070BD6068B0F5827FF4D0E561F2E784F8AA
:100C50005050204600F040F8022084F851002068EF
:100C6000016821F040010160A088218900F48270B0
:100C700001F404410843A18901F400610843217C87
:100C800001F002010843217D01F001010843218B9D
:100C900001F400710843217F01F03801084394F802
:100CA000201001F080010843218D01F40051084318
:100CB00021680860A069042101EA104021684860A9
:100CC0002068C16921F40061C1616565012084F873
:100CD0005100002070BD000030B585B000240094A4
:100CE00001940294039400681449884223D1144863
:100CF000816941F480518161816901F480510491DD
:100D0000816941F00401816180690E4D00F00400A9
:100D10000490A020009002200190032003906946D7
:100D20002846FFF763FB4020CDE9000469462846CA
:100D30000294FFF75BFB05B030BD000000300140BE
:100D400000100240000801402DE9F84F044690F8D9
:100D5000500000270A9E1D4692468B464FF001091F
:100D600001280ED0012084F85000FFF741FC804696
:100D700094F85100616801280CD0B1F5827F07D149
:100D800002E00220BDE8F88FA16809B9042801D06B
:100D90000227C2E0BBF1000F27D0BAF1000F24D028
:100DA0001DB394F85100042802D0052084F85100A6
:100DB00000206065C4F838A0E587A587C4F830B086
:100DC000E586A5862064606420680168490603D42E
:100DD000016841F040010160E068B0F5006F6068B3
:100DE00005D0E8B3012D46D07FE0012795E008B19A
:100DF000012D39D1206B21680088C860206B801CD0
:100E00002063E08E401EE0862EE02068816889071E
:100E10000FD5E18E69B1B9F1010F0AD1216B0988B3
:100E2000C160206B801C2063E08E401EE0864FF086
:100E3000000920688168C9070CD0E18F51B1C068F2
:100E4000A16B0880A06B801CA063E08F401EE08730
:100E50004FF00109FFF7CCFBA0EB0800B04200E027
:100E600009E001D3701C50D1E08E0028CDD1E08F75
:100E70000028CAD13FE0206B216800780873206BFE
:100E8000401C2063E08E401EE0862EE020688168D2
:100E900089070FD5E18E69B1B9F1010F0AD1216B34
:100EA00009780173206B401C2063E08E401EE086B1
:100EB0004FF0000920688168C9070CD0E18F51B15B
:100EC000C068A16B0870A06B401CA063E08F401E3F
:100ED000E0874FF00109FFF78BFBA0EB0800B04261
:100EE00002D3701C01D010E07EB1E08E0028CDD17D
:100EF000E08F0028CAD142463146204600F066FA0B
:100F000028B101272020606507E0032705E0A068DD
:100F100018B92068C16880680090012084F85100E9
:100F2000002084F8500038462CE710B5401EB0F180
:100F3000807F01D3012010BD4FF0E02460610F21BC
:100F4000601700F045FD0020A0610720206100200F
:100F500010BD704770470000F8B50268044610687D
:100F6000D168536910F00F0F4FF0000553D003F014
:100F7000010601F4907737435FD0C20705D0CA0558
:100F800003D5226C42F001022264420705D5DA073C
:100F900003D0226C42F002022264820705D5DA07F0
:100FA00003D0226C42F004022264020707D501F04C
:100FB0002002324303D0226C42F008022264226CE9
:100FC000002A34D0800604D5880602D5204600F0D9
:100FD000E2FB20684069216CC0F38010090700D44F
:100FE00030B3204600F0BFFB2068416949061BD59D
:100FF000416921F040014161A06BA8B158494163AA
:10100000A06BFFF75BF9002811D0A06B416B01B01A
:10101000BDE8F040084783060FD58B060DD5204666
:10102000BDE8F84000F0B7BB2046FFF793FFF8BDDE
:101030002046FFF78FFF2564F8BD266B2023012E85
:1010400052D1C60650D5CE064ED5106850680090D5
:10105000506940062AD5A16B086840680004000C5E
:10106000EAD0A68D8642E7D9E0858869202818D085
:10107000D06820F48070D0602068416921F00101BF
:1010800041612068416921F04001416184F83E30AE
:1010900025632068C16821F01001C160A06BFFF7D3
:1010A000E9F8A08DE18D401A81B219E0A08DE18DA3
:1010B000401A81B2E08D0028BED00029BCD0D06893
:1010C00020F49070D0602068426922F001024261F1
:1010D00084F83E3025632068C26822F01002C260A6
:1010E0002046FFF736FFF8BD05062BD50D0629D59E
:1010F00094F83D002128F6D1A068B0F5805F01D1B9
:101100002069B0B1206A411C2162216800784860E2
:10111000E08C401E0004000CE084E4D12068C1682B
:1011200021F08001C1602068C16841F04001C160C8
:10113000F8BD206A0088C0F308005060206A801C57
:101140002062E5E74006F3D54806F1D5D168204690
:1011500021F04001D16084F83D3000F0FEF8F8BD88
:101160005717000870B5040004D094F83D0000251E
:1011700010B106E0012070BD84F83C50204600F01C
:1011800023F8242084F83D002068C16821F4005130
:10119000C160204600F05AFB2068016921F49041AB
:1011A00001612068416921F02A0141612068C1681C
:1011B00041F40051C1602564202084F83D0084F88A
:1011C0003E00002070BD000030B585B000240094C2
:1011D0000194029403940068184988422CD118485D
:1011E000816941F480418161816901F48041049108
:1011F000816941F0040181618069124D00F00400B1
:1012000004904FF40070009002200190032003909E
:1012100069462846FFF7EAF82815CDE90004694633
:1012200028460294FFF7E2F8002211462520FFF736
:101230004BFA2520FFF73AFA05B030BD00380140DF
:10124000001002400008014090F83E30202B0ED1E3
:1012500059B152B190F83C30012B08D0012380F8ED
:101260003C300023036300F04DBB01207047022097
:101270007047000010B50068084988420DD14FF64C
:10128000FF7301220649074800F00EF8BDE8104040
:10129000012203490348FFF7D7BF10BD00380140C2
:1012A00001000020780000202DE9F843044690F862
:1012B0003D001F4616460D4620284CD1C5B1BEB193
:1012C00094F83C00012846D0012084F83C004FF0FF
:1012D0000008C4F84080212084F83D00FFF788F919
:1012E000A6848146E684A068B0F5805F03D004E060
:1012F0000120BDE8F883206928B12E465FF0000583
:1013000084F83C800EE00026FAE78021204600F0B9
:1013100014FBA0B9AEB116F8010B21684860E08C4F
:10132000401EE084E08C4B464FF0000200970028FE
:10133000EBD14FF04001204600F0FFFA30B103201E
:10134000D7E735F8020BC0F30800E6E7202084F861
:101350003D000020CDE70220CBE77047FEE700000C
:101360000F4810B50D4901604FF4827141600021B2
:101370008160C1604FF400720161C0E9051208226A
:10138000C0E90721416281620A21C162FFF74AFC7C
:10139000002801D072B6FEE710BD00000030014009
:1013A00020000020FEE7FEE7704700000122114602
:1013B0000148FFF717B90000001001400022012189
:1013C0000148FFF70FB900000010014038B50B4687
:1013D000009204460022802100F02EF9002804D05B
:1013E000606D40F020006065032038BD70B5164682
:1013F0000C460546FFF7E2FF032000F0EFF8C4F3C8
:10140000074000F0EBF8C4F3072000F0E7F8E0B283
:1014100000F0E4F804E0FF2000F0E0F805F8010B2C
:10142000761EB6B2F7D2BDE87040FFF7BFBF2DE918
:10143000F04707460E4611F0FF00C0F10001CDB2A3
:101440004FEA122402F0FF094FF4807A13D0F0B271
:101450004042C0B206EB00080CB3501B80B2040A35
:1014600000F0FF092A463146384600F03FF83D4477
:10147000464657462AE06CB15546641EE4B20CD38A
:101480002A463146384600F031F806F5807607F5F1
:101490008077F2E73146384621E04A46FAE7A94527
:1014A000F8D9A9EB0500C4B22A463146384600F007
:1014B0001DF841467819224611E03A463146284641
:1014C00000F014F805F5807506F58076641EE4B228
:1014D000F3D2B9F1000006D0024631462846BDE8F5
:1014E000F04700F003B8BDE8F087000070B514467F
:1014F0000E46054600F095F8FFF760FF022000F069
:101500006DF8C6F3074000F069F8C6F3072000F055
:1015100065F8F0B200F062F8B4F5807F07D908A052
:1015200000F046FAFF24287800F058F86D1C641E7D
:10153000A4B2F8D2FFF73AFFBDE8704000F062B8FD
:101540003C3C2D464C4153482D4552524F522D3E66
:101550003E20466C617368207061676577726974BC
:101560006520746F6F206C61726765210A0000004E
:1015700070B5FFF723FF9F2000F030F8FF2000F048
:101580002DF80446FF2000F029F80546FF2000F062
:1015900025F80646FFF70AFF200440EA05203043FD
:1015A00070BD10B5044600F03CF800F02BF8FFF7D2
:1015B00005FF202000F012F8C4F3074000F00EF8F9
:1015C000C4F3072000F00AF8E0B200F007F8FFF7D4
:1015D000EDFEBDE8104000F015B800000EB5012387
:1015E0008DF808004FF48050009001AA02A9044829
:1015F000FFF7AAFB08B101200EBD9DF804000EBD47
:101600002000002010B5FFF7D9FE0520FFF7E6FF08
:10161000FF20FFF7E3FFC007FAD1BDE81040FFF756
:10162000C5BE10B5FFF7CAFE0620FFF7D7FFBDE81D
:101630001040FFF7BBBE00002DE9F8431E4691465F
:1016400088460446089DFEF7D3FF401B351AFEF777
:10165000CFFF074625480068C0F3CB30684338E029
:10166000701C37D0FEF7C4FFC01BA84203D215B1CF
:10167000009860B32CE02068416821F0E0014160EF
:101680006068B0F5827F0BD1A068B0F5004F02D042
:10169000B0F5806F04D12068016821F0400101603D
:1016A000A06AB0F5005F09D12068016821F40051FB
:1016B00001602068016841F400510160012084F854
:1016C0005100002084F850000320BDE8F883002575
:1016D000401E00902068816838EA010004D0002193
:1016E0004945BDD10020F0E70121F9E718000020AD
:1016F0007047FEF783BF30B58FB028216846FEF7EC
:101700004AFD14210AA8FEF746FD01210804CDE98F
:1017100000100024029402250491CDE907504FF4F3
:10172000E01009906846FFF7EDF808B172B6FEE7E1
:101730000F20CDE90A054FF48060CDE90C4002216D
:101740000AA80E94FEF7F2FF002801D072B6FEE759
:101750000FB030BD704710B5406A0021C185C1840B
:10176000FFF7F8FB10BD0168CA6822F49072CA60E6
:1017700001684A6922F001024A61016B012904D122
:101780000168CA6822F01002CA60202180F83E1069
:1017900000210163704708B590F83E10222901D05E
:1017A000022008BD82684FF480539A4201D101693A
:1017B00021B1816A9A421BD04AB10AE00268816A6B
:1017C0005268C2F308020A80816A891C08E0026933
:1017D00072B10268526802F07F020A70816A491C85
:1017E0008162C18D491E0904090CC18503D019E02D
:1017F00002685268F1E70168CA6822F02002CA60F4
:101800000168CA6822F48072CA6001684A6922F0DD
:1018100001024A61202180F83E10016B012903D0AA
:10182000FFF728FD002008BD002101630168CA6898
:1018300022F01002CA6001680A68D20602D50A685E
:1018400049680091818DFFF784FBEBE770B5044692
:1018500000680169E26821F4405111430161216986
:10186000A0680843616908432168CA6841F20C63B3
:101870009A430243CA6020684169A26921F4407119
:10188000114341611E492068884202D1FEF7F4FFEE
:1018900001E0FEF7E1FF00EBC00101EB0012606820
:1018A00064218000B2FBF0F3B3FBF1F36FF0180694
:1018B0007343B2FBF0F5B2FBF0F605EB8305322380
:1018C00003EB0515B5FBF1F5B6FBF1F605F0F005F8
:1018D00005EB0615B2FBF0F6B2FBF0F0B0FBF1F051
:1018E0006FF01802504306EB800003EB0010B0FBD2
:1018F000F1F0216800F00F002844886070BD0000FE
:101900000038014081628285C28500210164222263
:1019100080F83E2080F83C100168CA6842F480726A
:10192000CA6001684A6942F001024A610068C16800
:1019300041F02001C160002070472DE9F041984638
:1019400017460E460446069D1DE0681C1BD02DB1AF
:10195000FEF74EFEA0EB0800A84214D92068C1682B
:1019600021F4D071C1602068416921F00101416119
:10197000202084F83D0084F83E00002084F83C00DC
:101980000320BDE8F0812068006836EA000004D03A
:101990000020B842D9D00020F3E70120F9E7000089
:1019A0000148FFF7D9BA000078000020FEE70000E8
:1019B0000FB4054B10B503A9044A029800F028F8AB
:1019C00010BC5DF814FB0000D11C00081C000020B6
:1019D0000907090E002804DB00F1E02080F800145C
:1019E000704700F00F0000F1E02080F8141D7047F0
:1019F00002E008C8121F08C1002AFAD170477047D8
:101A0000002001E001C1121F002AFBD17047000035
:101A10002DE9FF4F8DB09B460F460446002606E099
:101A200025280BD05A460F999047641C761C2078C5
:101A30000028F5D111B03046BDE8F08F0025A8464A
:101A40000122984900E0054314F8013F203B02FAC7
:101A500003F00842F7D120782E2817D114F8010F8F
:101A600045F004052A280ED06FF02F022078A0F14F
:101A7000300109290AD808EB880102EB410100EB8B
:101A80000108641CF2E757F8048B641C20786C286A
:101A90000DD004DC4C2812D06A2811D104E074283F
:101AA0000DD07A280CD10AE045F4001507E06178E2
:101AB00045F48015814202D1641C05F58015641C33
:101AC0002278692A45D008DC002AB3D0582A69D088
:101AD000632A10D0642A08D13BE0702A67D0732AA9
:101AE00013D0752A5CD0782A5CD010465A460F99DC
:101AF0009047761CD3E017F8040B8DF80000002007
:101B00008DF80100E946012003E057F8049B4FF0EF
:101B1000FF3069074FF0000501D40AE06D1C454510
:101B20000DDA8542FADB19F805100029F6D106E036
:101B30006D1C8542FCDB19F805100029F8D12E44F4
:101B400004E019F8010B5A460F9990476D1EF8D220
:101B5000A5E00A200021CDE90801C5F302500228C2
:101B60000DD001CFC117031E71F100030DDA4FF044
:101B7000000CD0EB0C006CEB01012D2308E0FF1DE5
:101B800027F00707F7E80201EDE72B0504D52B2323
:101B90008DF8283001233BE0EB0739D02023F7E70D
:101BA0000A2000E010200021CDE9080107E0102004
:101BB000002145F00405CDE908014FF00808C5F300
:101BC000025002280FD001CF00214FF0000A2B074E
:101BD0001FD5702A0DD0DDE908C38CF0100C5CEA2B
:101BE000030C0CD015E0FF1D27F00707F7E80201F2
:101BF000EBE740228DF828204FF0010A0BE050EA75
:101C0000010306D030238DF828308DF829200223D7
:101C10009A46582A04D024A20DF120090B9209E01B
:101C200026A2F9E7DDE90823FEF7C0FA0B9B9B5CCF
:101C300009F8013D50EA0102F4D1ADEB0900203072
:101C40000890680701D44FF001080899884502DD23
:101C5000A8EB010000E000208046002506E00AA86D
:101C60005A46405D0F9990476D1C761C5545F6DB32
:101C700004E030205A460F999047761CB8F10001D5
:101C8000A8F10108F5DC05E019F8010B5A460F9997
:101C90009047761C0899481E08900029F4DC641CC3
:101CA000C5E60000092801003031323334353637BB
:101CB0003839616263646566000000003031323398
:101CC0003435363738394142434445460000000038
:101CD00013B54FF6FF73012269460248FFF7E4FA95
:101CE00000981CBD7800002086B000240094FEF708
:101CF0008DFCFFF700FD3848009401940294039492
:101D0000816941F010018161816901F01001049144
:101D1000816941F0040181618069304D00F0040067
:101D20000122049011462846FEF75CFC02200121A6
:101D300003900091CDE9011469462846FEF756FB51
:101D4000FFF70EFB2748264901604FF4E131C0E957
:101D500001140C21C460C0E904418461C461FFF72F
:101D600001FA08B172B6FEE7FFF702FC01460090E7
:101D70001DA0FFF71DFE01221F491A48FFF7C2FDF3
:101D80001E490098884223D10020FFF70AFC1A4818
:101D900009220021401CFFF74AFB124809220021BA
:101DA0004430FFF723FB0F4915A04431FFF700FE35
:101DB0000C49114809224431401CFEF74AFA0E49E9
:101DC000491E08700878012803D012A0FFF7F0FD23
:101DD000FEE716A0FAE700000010024000100140E4
:101DE0000038014078000020466C61736820494447
:101DF0003A307825580A0D00010000201740EF0006
:101E0000526561642044617465206973203A2573CA
:101E10000D0A0000666C6173682074657374206637
:101E200061696C656420210D0A000000666C6173B5
:101E30006820746573742073756363656564210D30
:101E40000A0000000000000000000000010203047E
:101E50000607080900000000010203047C1E0008B8
:101E60000000002020000000F01900089C1E00085F
:101E700020000020A8040000001A000800004A7595
:101E8000737420746573740001000000100000007A
:0C1E9000000000000024F400000000002E
:0400000508000131BD
:00000001FF
