:020000040800F2
:10000000D8040020450100086928000833270008AB
:1000100065280008B50900084D2C00080000000004
:100020000000000000000000000000009928000807
:10003000F5090008000000006D2800089B28000852
:100040005F0100085F0100085F0100085F01000810
:100050005F0100085F0100085F0100085F01000800
:100060005F0100085F0100085F010008B90900088E
:100070005F0100085F0100085F0100085F010008E0
:100080005F0100085F0100085F0100085F010008D0
:100090005F0100085F0100085F0100085F010008C0
:1000A0005F0100085F0100085F0100085F010008B0
:1000B0005F0100085F0100085F0100085F010008A0
:1000C0005F0100085F0100085F0100085F01000890
:1000D0005F0100083D2C00085F0100085F01000877
:1000E0005F0100085F0100085F0100085F01000870
:1000F0005F0100085F0100085F0100085F01000860
:100100005F0100085F0100085F0100085F0100084F
:100110005F0100085F0100085F0100085F0100083F
:100120005F0100085F0100085F0100085F0100082F
:10013000DFF80CD000F0F8FA0048004799350008C5
:10014000D80400200648804706480047FEE7FEE73F
:10015000FEE7FEE7FEE7FEE7FEE7FEE7FEE7FEE777
:100160002529000831010008202A04DB203A21FA61
:1001700002F00021704721FA02F3D040C2F12002C0
:100180009140084319467047D2B201E000F8012BB4
:10019000491EFBD270470022F6E710B513460A4607
:1001A00004461946FFF7F0FF204610BD80EA010221
:1001B00010B502F00043400022D04A001FD0010ECB
:1001C00001EB1261C0F35600C2F3560240F4000086
:1001D00042F40002A0FB022000047F39140400D086
:1001E000401C50EA124001D44000491EC2B20C0625
:1001F00004EBD010401C4008802A02D003E000200D
:1002000010BD20F00100002900DA0020184310BDC5
:1002100030B480EA010202F0004530F0004221F0E3
:10022000004013D090B1C30DD40DC2F31601C0F33A
:100230001600E41A41F4000140F400027D349142BA
:1002400001D3641C00E04900002C02DA30BC00201D
:1002500070474FF400000023914201D3891A0343F1
:1002600040084FEA4101F7D151B1914202D14FF01C
:10027000004105E002D24FF0010101E06FF0010101
:1002800003EBC450284430BC00F05FB89623002232
:10029000114600F063B800F0004230F000400AD090
:1002A000C10D01F56071C0F3160042EA0151C208A8
:1002B00040071143704700200146704730B50B4698
:1002C000014600202022012409E021FA02F59D4286
:1002D00005D303FA02F5491B04FA02F52844151E5A
:1002E000A2F10102F1DC30BD2DE9F05F05460020EE
:1002F00092469B4688460646814640241BE0284697
:10030000414647462246FFF72FFF53465A46C01A3A
:10031000914110D311461846224600F017FA2D1AC3
:1003200067EB01084F4622460120002100F00EFA3B
:1003300017EB00094E41201EA4F10104DFDC484602
:1003400031462A464346BDE8F09F0029A8BF7047C2
:10035000401C490008BF20F00100704710B4B0FAFB
:1003600080FC00FA0CF050EA010404BF10BC704796
:1003700049B1CCF1200421FA04F411FA0CF118BFB0
:10038000012121430843A3EB0C01CB1D4FEA00617F
:100390004FEA102042BF002010BC704700EBC35052
:1003A00010440029A4BF10BC7047401C490008BF7E
:1003B00020F0010010BC70472DE9FE4F804681EA15
:1003C0000300C00F0C46009021F0004123F00045CF
:1003D000B8EB0200A94105D24046214690461C4692
:1003E0000B46024623F00040104347D0270DC7F3C9
:1003F0000A00C3F30A510290401A019040286BDAB8
:10040000C3F3130040F4801B0098924620B10023F0
:10041000D2EB030A63EB0B0B01985946C0F1400283
:10042000504600F093F906460D4650465946019A4B
:1004300000F09BF910EB08006141002487EA11529B
:1004400084EAE7731A4340D0009A62B3019A012A02
:100450004FEA075215DC001B61EB02014FF000422E
:1004600002EA0752CDE90042001C41F580113246F4
:100470002B4600F09BF903B0BDE8F08F40462146C3
:10048000F9E7001B61EB0201001C41F58013001825
:100490005B412018A2F5001747EB030140EAD57035
:1004A000B6196D4111E06D084FEA360645EAC07590
:1004B0004FEA0752001B61EB0201001C41F580115D
:1004C00049084FEA30000019514132462B4603B02B
:1004D000BDE8F04F00F05BB9009801224000002316
:1004E000D0EB020263EBE073009821464FEAE07420
:1004F000B8EB000061EB0401E9E783F000435BE740
:1005000081F0004158E72DE9FE4F81EA030404F031
:10051000004421F0004100944FF0000B23F0004311
:1005200050EA01045ED052EA03045BD0C3F30A54DC
:10053000C1F30A552C44A4F2F3340194A0FB0254F5
:10054000C1F3130141F48011C3F3130343F4801387
:1005500001FB024400FB034E840A970A44EA8154DB
:1005600047EA8357A4FB076802958D0A05FB0785B8
:100570004FEA932C04FB0C542705029D4FEA0658C2
:1005800047EA1637B5EB08056EEB070C870E920E9F
:1005900047EA811742EA8312A7FB0201B6EB0B017F
:1005A00064EB00042B0D43EA0C335E1844EB1C5043
:1005B000DA465146E7FB0201C5F313044FEA0B3359
:1005C00043EA14534FEA0432019C43EA0603A4F1C0
:1005D0000C040294009CCDE900B400F0E7F803B0ED
:1005E000BDE8F08F00200146F9E72DE9F04D81EAE2
:1005F000030404F0004B21F0004514464FF0000ABC
:1006000023F0004150EA050220D054EA01021DD037
:10061000C5F30A570246C5F31303C1F31300C1F330
:100620000A5640F4801543F48013A7EB0608101B0C
:10063000D64608F2FD3873EB050002D308F1010835
:1006400001E092185B41B8F1000F03DA0020014687
:10065000BDE8F08D00204FF48011064684460EE080
:10066000171B73EB050705D3121B63EB050306434A
:100670004CEA010C49084FEA300092185B4150EAFD
:100680000107EDD152EA030012D082EA040083EAA6
:100690000501084305D0101BAB4106D201220023FF
:1006A00006E000224FF0004302E06FF00102531019
:1006B0001AEB06004CEB085110EB0A0041EB0B0162
:1006C000BDE8F04D00F063B8C1F30A52C1F3130165
:1006D00040F2FF3341F480119A4202DA00200146D1
:1006E000704740F233439A42A2F2334202DC524254
:1006F000FFF73ABD00F02AB830B5041E71F10004CE
:1007000004DB4FF00044404264EB0101141E73F11E
:10071000000405DB1C464FF00043524263EB040328
:10072000994208BF904230BD064C074D06E0E06894
:1007300040F0010394E8070098471034AC42F6D328
:10074000FFF7FAFC6436000884360008202A04DB30
:10075000203A00FA02F1002070479140C2F12003D4
:1007600020FA03F3194390407047202A06DBCB1789
:10077000203A41FA02F043EAE07306E041FA02F35C
:10078000D040C2F12002914008431946704710B58D
:10079000141E73F1000408DA401C41F100019218A4
:1007A0005B411A4301D120F0010010BD2DE9F04D4D
:1007B00092469B4611B1B1FA81F202E0B0FA80F2A2
:1007C00020329046FFF7C2FF04460F4640EA0A0077
:1007D00041EA0B0153465A46084313D0114653EAE7
:1007E000010019D0C8F140025046FFF7BDFC054694
:1007F0000E46504659464246FFF7A8FF084305D02B
:10080000012004E020463946BDE8F08D0020054374
:1008100046EAE0762C4337430A986305E40AA0EBE6
:1008200008000022FD0A44EA47540A3002D500209D
:100830000146E9E7010510196941DDE9084500199C
:100840006941BDE8F04DA2E770B504460025206877
:10085000806800F0010018B32068806820F0010073
:100860002168886001F05AF8054613E001F056F857
:10087000401B02280ED92068806800F0010048B1B2
:10088000A06A40F01000A062E06A40F00100E0625F
:10089000012070BD2068806800F001000028E5D1CB
:1008A0000020F6E770B505466C6AA06A00F05000BB
:1008B000E0B9A06A40F40070A0622068806800F48B
:1008C0006020B0F5602F0DD1207B58B9A06A20F4CC
:1008D0008070A062A06A00F4805018B9A06A40F04D
:1008E0000100A062204600F039F903E0206A016BA4
:1008F0002846884770BD70B505466C6AA06A40F00E
:100900004000A062E06A40F00400E062204600F08F
:1009100027F970BD70B50446656A284600F01FF9D6
:1009200070BD000038B50446002500200090206806
:10093000806800F0010078BB2068806840F001000A
:1009400021688860194800681949B0FBF1F00090EF
:1009500002E00098401E009000980028F9D100F0B5
:10096000DDFF054619E000F0D9FF401B022814D92D
:100970002068806800F0010078B9A06A40F010009B
:10098000A062E06A40F00100E06200BF002084F84D
:10099000240000BF012038BD05E02068806800F019
:1009A00001000028DFD00020F5E70000140000203F
:1009B00040420F0000BFFEE710B5024800F09AFB6E
:1009C00010BD00004C00002030B590F840500124CC
:1009D000AC40C56B6C60046863604468102C04D143
:1009E0000468A2600468E16003E00468A160046830
:1009F000E26030BD704772B600BFFEE738B5024610
:100A000000230020009000BF92F82400012801D1AB
:100A1000022038BD012082F8240000BF4868072862
:100A200012D21068406B0C79641E04EB84051F24FD
:100A3000AC40A0430D796D1E05EB85050C68AC40FC
:100A400020431468606327E048680D2812D21068BC
:100A5000006B0C79E41F04EB84051F24AC40A04319
:100A60000D79ED1F05EB85050C68AC40204314683B
:100A7000206311E01068C06A0C790D3C04EB84051A
:100A80001F24AC40A0430D790D3D05EB85050C6896
:100A9000AC4020431468E06208680A2812D310684A
:100AA000C0680C780A3C04EB44050724AC40A04322
:100AB0000D780A3D05EB45058C68AC402043146871
:100AC000E0600FE0106800690C7804EB440507242F
:100AD000AC40A0430D7805EB45058C68AC40204345
:100AE000146820610868102802D00868112827D1EE
:100AF000174C1068A0421ED11068806800F40000F6
:100B0000F0B91068806840F400001468A0600868BC
:100B1000102815D10F4800680F4CB0FBF4F000EB23
:100B200080004000009002E00098401E0090009875
:100B30000028F9D104E0906A40F02000906201237F
:100B400000BF002082F8240000BF184661E70000C3
:100B5000002401401400002040420F0070477047FD
:100B6000704700002DE9F0410446002700250026CB
:100B7000A84614B90120BDE8F081A06810B1207D1D
:100B800000B100BFA06A30B90020E06284F8240000
:100B9000204600F097F82046FFF756FE0746A06A69
:100BA00000F01000002873D1002F7ED1A06A20F43D
:100BB000885040F00200A0623F4AD4E90001904210
:100BC00008D1E069B0F5402F02D14FF4002002E0D7
:100BD000E06900E0E0690143207B41EA4000064310
:100BE000A068B0F5807F02D0A068012802D14FF440
:100BF000807000E000200543207D012811D1207B7A
:100C000038B9A069401E4FF4006141EA4030054305
:100C100007E0A06A40F02000A062E06A40F0010016
:100C2000E0622068406820F46940284321684860F9
:100C30002068806821490840304321688860A068A6
:100C4000B0F5807F02D0A068012802D14FF48070F7
:100C500000E00020B0F5807F03D1208A401E4FEADB
:100C600000582068C06A20F4700040EA080021683B
:100C7000C8622068806812490840B04209D100204B
:100C8000E062A06A20F0020040F00100A06211E0E2
:100C90000BE0A06A20F0020040F01000A062E06AC1
:100CA00040F00100E062012704E0A06A40F010007B
:100CB000A062012738465EE7003C0140FDF7E1FFF6
:100CC000FE0E1FFF10B586B0044600200290039070
:100CD000049005902249206888423ED100BF2148F7
:100CE000806940F400701F4988610846806900F4FB
:100CF0000070019000BF00BF00BF0846806940F04F
:100D0000100088610846806900F01000019000BF63
:100D100000BF022002900320039002A9124800F0B5
:100D20005DFC12481249086000204860002110480C
:100D300081608021C16049000161890041612021F9
:100D400081610021C16100F0A1FB08B1FFF753FEF2
:100D500000BF07482062446200BF06B010BD00001B
:100D60000024014000100240001001400800024031
:100D70004C0000202DE9F04104460D4616460027A0
:100D800057492068884203D056492068884205D1D7
:100D90005348001D006800F4702000E00020002887
:100DA0007ED100BF94F82400012802D10220BDE8C2
:100DB000F081012084F8240000BF2046FFF7B2FD37
:100DC0000746002F6DD1A06A40F60161884340F4C8
:100DD0008070A06243492068884209D14048001DC4
:100DE000006800F4702008B9012002E0002000E053
:100DF000012078B1A06A20F48010A06220684068C9
:100E000000F4806000B3A06A20F4005040F48050E9
:100E1000A06219E0A06A40F48010A0623049206806
:100E2000884203D02F492068884205D12C48001DF4
:100E3000006800F4806000E0002028B1A06A20F47F
:100E4000005040F48050A062A06A00F4805020B1AD
:100E5000E06A20F00600E06201E00020E06200BFEE
:100E6000002084F8240000BF1F48216A88621F48C0
:100E7000216AC8621E48216A08636FF00200216877
:100E800008602068806840F480702168886022686B
:100E900002F14C0133462A46206A00F03DFB01E096
:100EA0001AE014E02068806800F46020B0F5602F3C
:100EB00006D12068806840F4A000216888600CE0BA
:100EC0002068806840F480102168886005E000BFD9
:100ED000002084F8240000E00127384667E700007E
:100EE0000024014000280140A50800081509000859
:100EF000F70800080146002291F82100022808D0D6
:100F00000420886300BF002081F8200000BF01207A
:100F100070470868006820F00E000B6818600868C9
:100F2000006820F001000B68186091F84030012043
:100F30009840CB6B5860012081F8210000BF002051
:100F400081F8200000BF1046E2E7000070B50446BB
:100F5000002594F82100022803D00420A063012575
:100F6000C1E02068006820F00E0021680860206859
:100F7000006820F00100216808605C492068884210
:100F800052D95A4978392068884201D1012047E076
:100F9000564964392068884201D1102040E0534905
:100FA00050392068884201D1801539E04F493C39D9
:100FB0002068884201D1801432E04C4928392068E9
:100FC000884202D14FF480302AE048491439206821
:100FD000884202D14FF4801022E0444920688842C0
:100FE00001D140041CE042492068884201D101201F
:100FF00016E03F4914312068884201D110200FE0EB
:101000003B4928312068884201D1801508E03849E1
:101010003C312068884201D1801401E04FF48030D7
:101020003349091F086051E0304978392068884207
:1010300001D1012047E02D4964392068884201D15F
:10104000102040E0294950392068884201D180159C
:1010500039E026493C392068884201D1801432E0C9
:10106000224928392068884202D14FF480302AE092
:101070001E4914392068884202D14FF4801022E0C2
:101080001A492068884201D140041CE018492068B0
:10109000884201D1012016E01549143120688842A8
:1010A00001D110200FE0124928312068884201D177
:1010B000801508E00E493C312068884201D1801437
:1010C00001E04FF48030094980394860012084F8FC
:1010D000210000BF002084F8200000BF606B10B129
:1010E0002046616B8847284670BD000080000240A2
:1010F0000804024070B50446E06B05682068066885
:1011000094F84010042088402840002875D006F04C
:1011100004000028FAD02068006800F0200028B9F8
:101120002068006820F0040021680860D549206824
:10113000884254D9D34978392068884201D10420A3
:1011400049E0D04964392068884201D1402042E01A
:10115000CC4950392068884201D100153BE0C9498B
:101160003C392068884202D14FF4804033E0C549C1
:1011700028392068884202D14FF480202BE0C149F1
:1011800014392068884202D14FF4800023E0BD4921
:101190002068884201D1C0041DE0BB492068884214
:1011A00001D1042017E0B84914312068884201D1E8
:1011B000402010E0B44928312068884201D1001550
:1011C00009E0B1493C312068884202D14FF48040A7
:1011D00001E04FF48020AC49091F086054E0A949A0
:1011E00078392068884201D104204AE0A549643951
:1011F0002068884202D1402043E04CE0A1495039A8
:101200002068884201D100153BE09E493C392068A6
:10121000884202D14FF4804033E09A49283920684F
:10122000884202D14FF480202BE09649143920687F
:10123000884202D14FF4800023E09249206888421E
:1012400001D1C0041DE090492068884201D10420EA
:1012500017E08D4914312068884201D1402010E008
:10126000894928312068884201D1001509E0864962
:101270003C312068884202D14FF4804001E04FF4B5
:101280008020804980394860E06A002802D02046EA
:10129000E16A8847F4E094F8401002208840284032
:1012A000002871D006F002000028FAD020680068FB
:1012B00000F0200040B92068006820F00A00216892
:1012C0000860012084F821006E492068884254D9C2
:1012D0006C4978392068884201D1022049E0694987
:1012E00064392068884201D1202042E065495039A4
:1012F0002068884201D140153BE062493C392068B2
:10130000884202D14FF4005033E05E49283920680A
:10131000884202D14FF400302BE05A49143920683A
:10132000884202D14FF4001023E0564920688842D9
:1013300001D180041DE054492068884201D1022077
:1013400017E0514914312068884201D1202010E073
:101350004D4928312068884201D1401509E04A49A9
:101360003C312068884202D14FF4005001E04FF434
:1013700000304549091F086054E042497839206827
:10138000884202D102204AE057E03E496439206891
:10139000884201D1202042E03A49503920688842F1
:1013A00001D140153BE037493C392068884202D1E1
:1013B0004FF4005033E0334928392068884202D185
:1013C0004FF400302BE02F4914392068884202D1B5
:1013D0004FF4001023E02B492068884201D180049B
:1013E0001DE029492068884201D1022017E02649E2
:1013F00014312068884201D1202010E02249283190
:101400002068884201D1401509E01F493C3120681D
:10141000884202D14FF4005001E04FF400301949E6
:101420008039486000BF002084F8200000BFA06A17
:1014300030B32046A16A884722E094F84010082083
:1014400088402840E0B106F00800C8B12068006874
:1014500020F00E002168086094F8401001208840B8
:10146000E16B48600120A06384F8210000BF0020E8
:1014700084F8200000BF206B10B12046216B884704
:1014800070BD0000800002400804024001460022B6
:1014900009B9012070471E4B086898420BD21D4BBA
:1014A0000868C01A1423B0FBF3F0800008641948E0
:1014B0000838C8630AE0164B0868C01A1423B0FB4A
:1014C000F3F08000086412480838C863022081F8ED
:1014D00021000868026843F6F0708243D1E90103F5
:1014E0001843CB6818430B6918434B6918438B6941
:1014F0001843CB69184302430868026000208863E0
:10150000012081F82100002081F8200000BFC1E700
:1015100008040240080002402DE9F04104460D464F
:1015200016461F464FF0000800BF94F8200001281F
:1015300002D10220BDE8F081012084F8200000BF24
:1015400094F8210001282CD1022084F821000020E9
:10155000A0632068006820F00100216808603B4615
:10156000324629462046FFF72FFAE06A30B120685C
:10157000006840F00E00216808600BE020680068F9
:1015800020F00400216808602068006840F00A002C
:10159000216808602068006840F001002168086048
:1015A00006E000BF002084F8200000BF4FF00208D2
:1015B0004046BFE770B5044600F0B0F90646254640
:1015C000681C10B104480078054400BF00F0A6F97B
:1015D000801BA842FAD370BD100000202DE9F84707
:1015E000024600239C467BE14FF0010808FA03F411
:1015F000D1F8008008EA0400A0427DD1DFF8F4A20F
:10160000D1F80480A8EB0A09D0453AD014DCB8F12F
:10161000030F50D009DCB8F1000F31D0B8F1010F41
:101620001CD0B8F1020F49D120E0B8F1110F18D049
:10163000B8F1120F42D11EE0B9F5881F25D006DCA3
:10164000B9F5803F20D0B9F5801F37D11AE0B9F540
:10165000001F18D0B9F5041F30D117E0D1F80CC025
:101660002DE0D1F80C8008F1040C28E0D1F80C80B2
:1016700008F1080C23E0D1F80C8008F10C0C1EE0F6
:1016800000BF00BF00BF00BF00BF00BFD1F808808F
:10169000B8F1000F02D14FF0040C0BE0D1F8088034
:1016A000B8F1010F03D14FF0080C146102E04FF0C4
:1016B000080C546103E04FF0000C00E000BF00BFD5
:1016C000FF2801D8904601E002F104084646FF28B1
:1016D00002D84FEA830803E0A3F108084FEA88081C
:1016E0004746D6F800804FF00F0909FA07F928EAB3
:1016F00009080CFA07F900E07AE048EA0908C6F898
:101700000080D1F8048008F08058B8F1805F6FD174
:1017100000BFDFF8E481D8F8188048F00108DFF84E
:10172000D891C9F81880C846D8F8188008F0010880
:10173000CDF8008000BF00BF4FEAB9384FEA9309E7
:1017400058F829504FEA83784FEA18794FF00F087C
:1017500008FA09F825EA0805DFF8A081424502D118
:101760004FF0000824E0DFF89881424502D14FF0A5
:1017700001081DE0DFF88C81424502D14FF00208DC
:1017800016E0DFF88481424502D14FF003080FE0F4
:10179000DFF87881424502D14FF0040808E0DFF815
:1017A0007081424502D14FF0050801E04FF0060874
:1017B0004FEA83794FEA197908FA09F848EA0505EA
:1017C000DFF850814FEA930948F82950D1F8048096
:1017D00008F48038B8F5803F0BD1DFF83C81D8F8A9
:1017E000008048EA0008DFF83091C9F800800AE07C
:1017F00075E0DFF82481D8F8008028EA0008DFF8D7
:101800001891C9F80080D1F8048008F40038B8F5C0
:10181000003F0ED1DFF8008108F10408D8F80080FD
:1018200048EA0008DFF8F09009F10409C9F80080DF
:101830000DE0DFF8E48008F10408D8F8008028EA19
:101840000008DFF8D49009F10409C9F80080D1F844
:10185000048008F48018B8F5801F0ED1DFF8B88036
:1018600008F10808D8F8008048EA0008DFF8A890D6
:1018700009F10809C9F800800DE0DFF89C8008F143
:101880000808D8F8008028EA0008DFF88C9009F1F1
:101890000809C9F80080D1F8048008F40018B8F5E8
:1018A000001F0ED1DFF8708008F10C08D8F8008016
:1018B00048EA0008DFF8609009F10C09C9F80080D7
:1018C0000DE0DFF8548008F10C08D8F8008028EA11
:1018D0000008DFF8449009F10C09C9F800805B1C8E
:1018E000D1F8008028FA03F8B8F1000F7FF47CAE3D
:1018F000BDE8F88700001110001002400008014008
:10190000000C01400010014000140140001801408B
:10191000001C01400800014000040140014800682B
:101920007047000008000020034800680349097858
:10193000084401490860704708000020100000209A
:1019400010B50848006840F0100006490860032000
:1019500000F0A8F80F2000F007F800F02BF80020A6
:1019600010BD00000020024070B504460E4800780B
:101970004FF47A71B1FBF0F00C490968B1FBF0F556
:10198000284600F0A3FC08B1012070BD102C07D23E
:1019900000222146501E00F047F80548046001E08F
:1019A0000120F2E70020F0E71000002014000020E2
:1019B0000C00002008B500BF1148806940F001000C
:1019C0000F4988610846806900F00100009000BF5F
:1019D00000BF00BF0846C06940F08050C86108469B
:1019E000C06900F08050009000BF00BF00BF0549F3
:1019F000486820F0E06040F00070486000BF08BD1B
:101A0000001002400000014001460846002809DBA2
:101A100000F01F0301229A4043099B0003F1E023D9
:101A2000C3F8002100BF70472DE9F05F80460D46E6
:101A30001646002701F01CF9074639462A46334668
:101A400001F00700C0F1070ABAF1040F02D94FF004
:101A5000040A01E0C0F1070AD14600F1040ABAF114
:101A6000070F02D24FF0000A01E0A0F1030AD446AA
:101A70004FF0010A0AFA09FAAAF1010A0AEA020A6F
:101A80000AFA0CFA4FF0010B0BFA0CFBABF1010B4D
:101A90000BEA030B4AEA0B042146404601F0F0F83A
:101AA000BDE8F09F00BF00F00702064B19684FF633
:101AB000FF031940044B0B4343EA0221014B196019
:101AC00000BF70470CED00E00000FA05F8B50446D1
:101AD00000260025207800F0010000286BD00027A8
:101AE0004348C06900F0805070B900BF4048C069E9
:101AF00040F080503E49C8610846C06900F08050FF
:101B0000009000BF00BF01273A48006800F48070D1
:101B1000B0B93848006840F4807036490860FFF773
:101B2000FDFE064606E0FFF7F9FE801B642801D99A
:101B30000320F8BD2F48006800F480700028F2D020
:101B40002B48006A00F440752DB3A08800F4407063
:101B5000A84220D02648006A20F44075012026497A
:101B60000860002008602248056205F0010090B17D
:101B7000FFF7D4FE064608E0FFF7D0FE801B41F2D7
:101B80008831884201D90320D3E71948006A00F060
:101B900002000028F0D01648006A20F44070616806
:101BA000084313490862012F04D10846C06920F098
:101BB0008050C86100BF207800F00200022807D1E1
:101BC0000B48406820F44040A16808430849486039
:101BD000207800F01000102807D10548406820F454
:101BE000800061690843024948600020A1E70000C5
:101BF00000100240007000404004424270B50446AC
:101C00000D460CB9012070BD5A48006800F007006D
:101C1000A8420ED25748006820F0070028435549D3
:101C200008600846006800F00700A84201D00120C3
:101C3000E9E7207800F0020002281DD1207800F0AA
:101C40000400042805D14C48406840F4E0604A494B
:101C50004860207800F00800082805D14648406810
:101C600040F46050444948604348406820F0F00028
:101C7000A168084340494860207800F0010078B32B
:101C80006068012806D13C48006800F4003090B933
:101C90000120B8E76068022806D13748006800F0E4
:101CA000007040B90120AEE73348006800F0020040
:101CB00008B90120A7E73048406820F003006168B8
:101CC00008432D494860FFF729FE064609E0FFF763
:101CD00025FE801B41F28831884202D9032092E719
:101CE00007E02548406800F00C006168B0EB810F08
:101CF000EDD12048006800F00700A8420ED91D4829
:101D0000006820F0070028431A4908600846006868
:101D100000F00700A84201D0012074E7207800F00D
:101D20000400042807D11448406820F4E060E1680A
:101D3000084311494860207800F00800082808D1BD
:101D40000D48406820F46050216940EAC1000A490A
:101D5000486000F03FF808494968C1F30311074A99
:101D6000515CC8400649086006480068FFF7FCFD62
:101D7000002048E700200240001002404C360008D6
:101D8000140000200C00002001480068704700008B
:101D90001400002000B5FFF7F7FF04494968C1F3BC
:101DA0000221034A515CC84000BD000000100240FF
:101DB0005C36000800B5FFF7E7FF04494968C1F346
:101DC000C221034A515CC84000BD0000001002401F
:101DD0005C360008F0B585B00FF26C0C9CE8E010A2
:101DE00001A8A0E8E0101CA52D68009500210022A4
:101DF000002300240020194D696801F00C05F5B19D
:101E0000042D02D0082D19D101E0154819E001ADCB
:101E1000C1F38346AC5D01F4803555B10F4D6D685B
:101E2000C5F340451DF805200D4D6543B5FBF2F3A4
:101E300002E00C4D04FB05F3184602E000BF084821
:101E400000BF00BF05B0F0BD020304050607080986
:101E50000A0B0C0D0E0F10100102000000100240C2
:101E600000127A0000093D00F8B504460CB90120C3
:101E7000F8BD207800F00100002878D0F8484068CC
:101E800000F00C0004280CD0F548406800F00C006D
:101E9000082811D1F248406800F48030B0F5803F46
:101EA0000AD1EF48006800F4003000285FD0606875
:101EB00000285CD10120DBE700BF6068B0F5803FFF
:101EC00006D1E748006840F48030E549086028E022
:101ED000606858B9E248006820F48030E049086042
:101EE0000846006820F4802008601AE06068B0F5B9
:101EF000A02F0BD1DA48006840F48020D849086050
:101F00000846006840F4803008600AE0D448006861
:101F100020F48030D24908600846006820F4802010
:101F2000086000BF606888B1FFF7F8FC054606E06E
:101F3000FFF7F4FC401B642801D9032098E7C84848
:101F4000006800F400300028F2D010E0FFF7E6FC53
:101F5000054606E0FFF7E2FC401B642801D9032098
:101F600086E7BF48006800F400300028F2D12078EE
:101F700000F00200022857D1B948406800F00C0078
:101F800050B1B748406800F00C00082818D1B44898
:101F9000406800F4803098B9B148006800F0020051
:101FA00020B12069012801D0012061E7AC48006818
:101FB00020F0F800616940EAC100A949086033E0F7
:101FC0002069E8B10120A7490860FFF7A7FC054692
:101FD00006E0FFF7A3FC401B022801D9032047E7D6
:101FE0009F48006800F002000028F2D09C4800687A
:101FF00020F0F800616940EAC1009949086013E0E7
:10200000002098490860FFF789FC054606E0FFF7C5
:1020100085FC401B022801D9032029E7904800686D
:1020200000F002000028F2D1207800F00800082813
:102030002DD1A069B8B101208B490860FFF76EFC73
:10204000054606E0FFF76AFC401B022801D9032081
:102050000EE78348406A00F002000028F2D0012019
:1020600000F006FC13E000207F490860FFF756FCF3
:10207000054606E0FFF752FC401B022801D9032069
:10208000F6E67748406A00F002000028F2D1207896
:1020900000F00400042873D100277148C06900F0E3
:1020A000805070B900BF6E48C06940F080506C49E4
:1020B000C8610846C06900F08050009000BF00BFB2
:1020C00001276A48006800F48070B0B9674800686A
:1020D00040F4807065490860FFF720FC054606E083
:1020E000FFF71CFC401B642801D90320C0E65F48B1
:1020F000006800F480700028F2D000BFE06801287A
:1021000006D15748006A40F001005549086227E0AF
:10211000E06858B95248006A20F00100504908624E
:102120000846006A20F00400086219E0E06805280B
:102130000BD14B48006A40F0040049490862084648
:10214000006A40F0010008620AE04548006A20F099
:102150000100434908620846006A20F00400086252
:1021600000BFE068A0B1FFF7D9FB054609E0FFF723
:10217000D5FB401B41F28831884202D9032077E623
:1021800022E03748006A00F002000028EFD012E099
:10219000FFF7C4FB054608E0FFF7C0FB401B41F218
:1021A0008831884201D9032062E62D48006A00F098
:1021B00002000028F0D1012F05D12948C06920F084
:1021C00080502749C86100BFE069C8B3244840680F
:1021D00000F00C00082860D0E069022848D10020F7
:1021E00020490866FFF79AFB054606E0FFF796FBD5
:1021F000401B022801D903203AE61948006800F084
:1022000000700028F2D1206AB0F5803F07D1144851
:10221000406820F40030A168084311494860D4E9BF
:10222000080108430E49496821F4741108430C4918
:10223000486001200B490866FFF770FB054607E080
:102240003DE0FFF76BFB401B022801D903200FE69E
:102250000348006800F000700028F2D02FE0000072
:1022600000100240000042428004424200700040E0
:10227000002014490866FFF751FB054606E0FFF70A
:102280004DFB401B022801D90320F1E50E480068F0
:1022900000F000700028F2D111E0E069012800D1BF
:1022A000E6E50948466806F48031206A814204D197
:1022B00006F47011606A814201D00120D8E5002047
:1022C000D6E50000000042420010024070B504460E
:1022D0002546681EB0F1807F01D301200FE0681E03
:1022E0004FF0E02148610F214FF0FF3000F0C8FCB3
:1022F00000204FF0E021886107200861002070BDB8
:10230000704770472DE9F84F04462068056820683B
:10231000C668206847694FF00009CA4605F00F09F2
:10232000B9F1000F0AD105F0200038B106F0200005
:1023300020B1204600F02CFBBDE8F88FB9F1000F6A
:1023400071D007F0010018B906F4907000286AD027
:1023500005F0010030B106F4807018B1206C40F037
:102360000100206405F0040030B107F0010018B14D
:10237000206C40F00200206405F0020030B107F04C
:10238000010018B1206C40F00400206405F0080042
:1023900048B106F0200010B907F0010018B1206C18
:1023A00040F008002064206C68B305F0200028B1DC
:1023B00006F0200010B1204600F0EAFA20684069DB
:1023C000C0F3801A206C00F0080010B9BAF1000FB9
:1023D00022D0204600F0B1FA2068406900F04000A9
:1023E000B0B12068406920F0400021684861A06BCE
:1023F00050B15648A16B4863A06BFEF7A7FD10B122
:10240000A06B416B88470CE02046FFF77AFF08E09D
:102410002046FFF776FF04E02046FFF772FF00201A
:10242000206489E7FFE7206B012878D105F01000D0
:10243000002874D006F01000002870D000BF0020E3
:10244000009020680068009020684068009000BFFD
:1024500000BF2068406900F04000C0B3A06B006876
:1024600040681FFA80F8B8F1000F2FD0A08D4045CA
:102470002CDDA4F82E80A06B806920281FD0206856
:10248000C06820F480702168C8602068406920F02E
:102490000100216848612068406920F040002168FF
:1024A0004861202084F83E00002020632068C06836
:1024B00020F010002168C860A06BFEF71BFDA08D06
:1024C000E28D801A81B22046FFF71AFF34E7FFE75A
:1024D000A08DE18D401A1FFA80F8E08DE8B1B8F1C7
:1024E000000F1AD02068C06820F490702168C8607E
:1024F0002068406920F0010021684861202084F8AC
:102500003E00002020632068C06820F01000216891
:10251000C86041462046FFF7F3FE0DE7FFE705F0F0
:10252000800030B106F0800018B1204600F020FB9A
:1025300002E705F0400030B106F0400018B1204637
:1025400000F016FAF8E600BFF6E6000027290008BA
:1025500010B504460CB9012010BDA06900B100E01F
:1025600000BF94F83D0028B9002084F83C002046C4
:1025700000F028F8242084F83D002068C06820F48A
:1025800000502168C860204600F074FA2068006995
:1025900020F49040216808612068406920F02A00FA
:1025A000216848612068C06840F400502168C86014
:1025B00000202064202084F83D0084F83E000020A4
:1025C000CAE7000010B586B00446002002900390D0
:1025D000049005901E492068884236D100BF1D48EE
:1025E000806940F480401B4988610846806900F496
:1025F0008040019000BF00BF00BF0846806940F0E6
:10260000040088610846806900F00400019000BF62
:1026100000BF48150290022003900320059002A9F4
:102620000D48FEF7DBFF4FF480600290002003901E
:10263000049002A90848FEF7D1FF00221146252088
:10264000FFF7F2F92520FFF7DFF906B010BD000013
:1026500000380140001002400008014070472DE999
:10266000F84F04460E46174699464FF0000A94F874
:102670003D0020285AD106B117B90120BDE8F88FD6
:1026800000BF94F83C00012801D10220F6E70120A8
:1026900084F83C0000BF00202064212084F83D0025
:1026A000FFF73CF98246A784E784A068B0F5805F15
:1026B00004D1206910B90025B04602E035464FF03C
:1026C000000800BF002084F83C0000BF1BE0534618
:1026D000002280212046CDF8009000F079FA08B160
:1026E0000320CBE745B9B8F80000C0F30800216823
:1026F000486008F1020803E02878216848606D1CF2
:10270000E08C401EE084E08C0028E0D1534600229B
:1027100040212046CDF8009000F05AFA08B103207D
:10272000ACE7202084F83D000020A7E70220A5E7C1
:10273000704700BFFEE700000EB50020009001903A
:102740000290194819490860002118488160012148
:102750000173002101754FF46021C161002013490C
:102760004860012111480161FEF7FCF908B1FEF74C
:1027700042F900BF0E480D49086208460C494862FC
:1027800000BF0B20009001200190042002906946B8
:102790000648FEF733F908B1FEF72DF90122054985
:1027A0000248FEF7E7FA0EBD002401401C0000209D
:1027B0004C0000200000002008B500BF0A48406916
:1027C00040F00100084948610846406900F00100F6
:1027D000009000BF00BF002211460B20FFF724F934
:1027E0000B20FFF711F908BD0010024008B500BF2B
:1027F0000D48806940F010000B49886108468069E7
:1028000000F01000009000BF00BF00BF08468069C4
:1028100040F0040088610846806900F004000090E0
:1028200000BF00BF08BD00000010024010B50B48FB
:102830000B4908604FF4E13048600021084881608E
:10284000C16001610C21416100218161C161FFF71B
:102850007FFE08B1FEF7CFF810BD00000038014040
:102860009000002000BFFEE700BFFEE770470000B9
:1028700008B508490968C9084FF47A72B1FBF2F14A
:102880004143009100BF00BF00994A1E00920029F9
:10289000F9D108BD14000020704710B5FFF744F8C7
:1028A00010BD00B595B028210BA8FDF774FC1421CC
:1028B00006A8FDF770FC18216846FDF76CFC0120A6
:1028C0000B9000040C9000200D9001200F9002202E
:1028D0001290C10313914FF4E01114910BA8FFF76C
:1028E000C3FA08B1FEF787F80F2006900220079080
:1028F000002008904FF48060099000200A90022187
:1029000006A8FFF77BF908B1FEF775F802200090E2
:10291000800302906846FFF7D9F808B1FEF76BF81C
:1029200015B000BD704770B505466C6A0020E085A3
:10293000E0842046FFF7E5FC70BD0168C96821F41A
:1029400090710268D1600168496921F00101026853
:102950005161016B012905D10168C96821F010019D
:102960000268D160202180F83E1000210163704789
:1029700010B504462068C06820F040002168C86097
:10298000202084F83D002046FFF7D2FE002010BD35
:10299000F8B5044694F83E00222869D1A068B0F545
:1029A000805F0CD1206950B90025A66A2068406874
:1029B000C0F308003080A06A801CA06215E0A56A00
:1029C0000026A068B0F5805F03D0A06828B9206910
:1029D00018B920684068287004E02068406800F05A
:1029E0007F002870A06A401CA062E08D401E80B26B
:1029F000E085A8BB2068C06820F020002168C8607E
:102A00002068C06820F480702168C8602068406930
:102A100020F0010021684861202084F83E00206BEE
:102A200001281ED1002020632068C06820F010001B
:102A30002168C8602068006800F0100010280AD1E2
:102A400000BF002000902068006800902068406867
:102A5000009000BF00BFA18D2046FFF751FC03E0AE
:102A600004E02046FFF7FAFD0020F8BD0020FCE757
:102A70000220FAE770B504462168096921F4405143
:102A8000E2681143226811612269A16811436269F9
:102A900041EA02052168C96841F20C629143294369
:102AA0002268D1602168496921F44071A26911430B
:102AB000226851612D4A2168914202D1FFF77AF9CB
:102AC00001E0FFF767F900EBC00101EB001162685C
:102AD0009200B1FBF2F100EBC00202EB001263685E
:102AE0009B00B2FBF3F26423B2FBF3F202EBC203EE
:102AF00003EB0212A1EB8201322202EB01116422EC
:102B0000B1FBF2F101F0F00100EBC00202EB0012A8
:102B100063689B00B2FBF3F26423B2FBF3F201EBB8
:102B2000021200EBC00101EB001163689B00B1FBD6
:102B3000F3F100EBC00303EB00136668B600B3FBD0
:102B4000F6F36426B3FBF6F303EBC30606EB0313BD
:102B5000A1EB8301322303EB01116423B1FBF3F1F9
:102B600001F00F0111442268916070BD00380140EE
:102B7000014691F83D00212828D18868B0F5805F92
:102B80000BD1086948B90A6A1088C0F308000B68BD
:102B90005860086A801C086205E00B6A581C0862CD
:102BA00018780B685860C88C401E80B2C88458B929
:102BB0000868C06820F080000B68D8600868C068AA
:102BC00040F040000B68D860002070470220FCE70E
:102BD0002DE9F04104460D4617469846069E21E031
:102BE000701CF8B12EB1FEF799FEA0EB0800B042C0
:102BF00018D92068C06820F4D0702168C8602068A7
:102C0000406920F0010021684861202084F83D00DF
:102C100084F83E0000BF002084F83C0000BF032081
:102C2000BDE8F081206800682840A84201D1012059
:102C300000E00020B842D3D00020F1E710B50248F0
:102C4000FFF760FB10BD00009000002000BFFEE712
:102C50000FB4054B10B503A9044A029800F0F6F82A
:102C600010BC5DF814FB00007D3500081800002042
:102C700002480068C0F30220704700000CED00E03D
:102C800010B5002804DB0A07130E054A135406E0AA
:102C90000A07140E034A00F00F031B1FD45410BD83
:102CA00000E400E018ED00E002E008C8121F08C1CF
:102CB000002AFAD170477047002001E001C1121FBD
:102CC000002AFBD1704700002DE9FF5F82B0002190
:102CD000DDE90430020DDDF840B0034318D044F6BE
:102CE0001050A2F2FF3242431514119801281FD050
:102CF000A5EB0B00401C5FEA000A4FF000064E4FA8
:102D0000DFF83891B046504615D5CAF1000413E0FB
:102D1000119801244AA3012801D16FEA0B010298FE
:102D2000119AC0E90031C0E9024206B0BDE8F09F47
:102D3000CBF10000DFE704460021404A491842EB8E
:102D40000450CDE9001012E0E00707D032463B46C0
:102D500040464946FDF7D7FB8046894632463B460A
:102D600010461946FDF7CFFB06460F466410002CAF
:102D7000EAD1DDE90401DDE90023BAF1000F06DA4A
:102D8000FDF7C1FB42464B46FDF7BDFB05E0FDF7F5
:102D90002CFC42464B46FDF728FC04460E4600221A
:102DA000284BFDF7A9FC03D84FF0FF30014607E0A0
:102DB0000022254B20463146FDF7FEFAFDF784FC44
:102DC000102409E0002C0ADB0A220023FDF78CFA0C
:102DD000039B30321A55641E50EA0102F2D1641C82
:102DE000039AC4F111031444119A012A03D0012259
:102DF00008430DD10AE0084304D000204FF0110B26
:102E0000119072E7A3EB0B056D1E0DE05B4504DD31
:102E10004FF0000205F1010504E003DA4FF0000273
:102E2000A5F10105002AECD002981199C0E9023100
:102E3000C0E9004579E70000000014400000F03FC1
:102E4000300000000000F0430000E03F2DE9FF4F9C
:102E500095B09B468946064600250FE2252877D186
:102E600000242746F84A0121059400E0044316F89F
:102E7000013F203B01FA03F01042F7D130782A28B5
:102E800011D06FF02F033078A0F13002092A16D844
:102E9000059A44F0020402EB820203EB4202104462
:102EA000761C0590EFE759F8042B0592002A03DA07
:102EB000504244F40054059044F00204761C3078EB
:102EC0002E2816D116F8010F44F004042A280DD03C
:102ED0006FF02F023078A0F13003092B09D807EBEF
:102EE000870302EB4303C718761CF3E759F8047B0A
:102EF000761C30786C280FD006DC4C2817D0682858
:102F00000DD06A2814D104E0742810D07A280FD18B
:102F10000DE044F400140AE044F4801401E044F4A9
:102F200040147278824202D104F58014761C761C1B
:102F3000307866280BD013DC582877D009DC0028BD
:102F400075D04528F6D04628F4D047281AD19DE1FF
:102F500018E0632835D0642879D0652812D195E12E
:102F6000702873D008DC6728F1D069286FD06E28EC
:102F70000DD06F2806D1B5E073282CD0752875D0F8
:102F8000782874D05A46179990476D1C75E1C4F3A0
:102F90000250022809D003280DD0D9F800100428C7
:102FA0000DD00D6009F1040967E1D9F80010EA17A6
:102FB000C1E90052F6E7D9F800100D80F2E70D7074
:102FC000F0E719F8041B8DF8001000208DF80100BF
:102FD000EA46012003E059F804AB4FF0FF306107E7
:102FE0004FF0000102D40DE008F101018846B9421A
:102FF0000FDA8045F8DB1AF808100029F4D108E050
:1030000008F1010188468142FADB1AF8081000290C
:10301000F6D105985B46A0EB080721463846179A7B
:1030200000F094FA284400EB080507E04DE029E1A0
:103030000DE01AF8010B5A4617999047B8F10108AC
:10304000F7D25B4621463846179A13E142E00A223E
:103050000092C4F302524FF0000A022A08D059F835
:1030600004CB032A4FEAEC710AD00DE029E02AE0F4
:1030700009F1070121F00702F2E802C1914609E0D7
:103080000FFA8CFC4FEAEC71042A03D14FFA8CFC46
:103090004FEAEC71002907DA0A460021DCF1000C46
:1030A00061EB02012D2202E0220504D52B228DF8CE
:1030B0000420012203E0E20701D02022F7E7904636
:1030C00059E00A2102E010220DE010214FF0000A21
:1030D00000910BE010224FF0000A44F0040408278E
:1030E000009203E008224FF0000A0092C4F302525B
:1030F000022A05D059F804CB0021032A08D009E0A0
:1031000009F1070121F00702F2E802C1914605E04A
:103110001FFA8CFC042A01D10CF0FF0C4FF00008C0
:10312000220728D5702806D0009B83F0100353EAAD
:103130000A0305D00EE040228DF80420012208E0A9
:103140005CEA010206D030228DF804208DF80500DB
:1031500002229046009B83F0080353EA0A030AD137
:103160005CEA010201D1620705D530228DF8042006
:103170004FF001087F1E582804D034A003900EA8F9
:1031800002900DE036A0F9E753466046009AFDF73D
:10319000ABF884460398825C0298401E029002704D
:1031A0005CEA0100F0D1029806A9081A00F1200A91
:1031B000600702D524F4803400E00127574502DD82
:1031C000A7EB0A0000E0002000EB0A010090059840
:1031D0004144401A0590E00306D45B462146179A05
:1031E000059800F0B3F90544002706E001A85A4607
:1031F000C05D179990476D1C7F1C4745F6DBE003C7
:103200000CD55B462146179A059800F09FF90544B6
:1032100004E030205A46179990476D1C0099481ECB
:1032200000900029F5DC08E0029802995A460078DF
:10323000491C0291179990476D1CBAF10001AAF13F
:10324000010AF1DC65E10000092801003031323368
:1032500034353637383961626364656600000000D2
:1032600030313233343536373839414243444546BC
:103270000000000000F058F90544761C3078002862
:103280007FF4ECAD19B02846BDE8F08F620700D49A
:10329000062709F1070222F0070CFCE80223E146A9
:1032A00003F000485FEA080C02D00FF2702C0DE02A
:1032B0005FEA045C02D50FF2682C07E05FEAC47C89
:1032C00002D00FF2602C01E0AFF2700C4FF0FF382B
:1032D00023F00043CDF850C065280CD006DC45280B
:1032E00009D046281DD047283DD13DE0662818D09A
:1032F00067287ED138E00021112F01DB112000E08A
:10330000781CCDE9000106A90EA8FFF7DDFCDDE978
:103310000F010E9A03910021009207F1010A049116
:103320004DE04FF000400097CDE9011006A90EA82E
:10333000FFF7CAFCDDE90F0203920E9B11990022F0
:10334000DDF80CA00093049211B9791C00EB010A7E
:10335000B7EB0A0004D4C0F1FF3007F1010A049072
:10336000AAEB0700019044E0012F00DA01270021B9
:10337000112F01DD112000E03846CDE9000106A93A
:103380000EA8FFF7A1FCDDE90F010E9A03910021C1
:1033900004910092BA4621070CD40399514500DAF2
:1033A0008A46BAF1010F05DD009AAAF10101515CCC
:1033B000302908D0B84202DA10F1040F06DA0121F0
:1033C000CDE9011015E0AAF10101E9E7002805DCCB
:1033D000049901440491AAEB000102E0411C51450B
:1033E00000DD8A460499401A401C01904FF00040CD
:1033F0000290200704D40198504501DBCDF80480E9
:1034000000208DF84F0002980DF14F07B0F1004FEA
:1034100025D02B200E9002984FF0020800280CDADD
:10342000404202902D200E9007E00A210298FCF7FE
:1034300045FF3031029007F8011DB8F10001A8F1F5
:103440000108F2DC02980028EFD1791E0E9808706E
:10345000307800F0200040F0450007F8020D12A877
:10346000C01B00F107081498007800B1012000EBA0
:103470000A01019801EBE07105984144401A401E91
:103480000590E00306D45B462146179A059800F0A4
:103490005DF805441498007818B15A46179990477A
:1034A0006D1CE00324D55B462146179A059800F071
:1034B0004DF805441CE00498002807DBDDE9030112
:1034C000884203DD0098405C179901E0179930208D
:1034D0005A469047049805F10105401C0490019854
:1034E000401E019004D12E205A46179990476D1C1A
:1034F000BAF10001AAF1010ADDDC05E017F8010BC1
:103500005A46179990476D1CB8F10001A8F10108BF
:10351000F4DC5B462146179A0598ABE62D000000C7
:103520002B000000200000002DE9F041044600259A
:103530001E461746880404D405E039462020B047CB
:103540006D1C641EF9D52846BDE8F0812DE9F041D7
:10355000044600251E469046C80301D5302700E0EA
:103560002027880404D505E041463846B0476D1C45
:10357000641EF9D52846BDE8F081000013B50C465D
:103580004FF47A73012269460248FFF768F8009801
:103590001CBD000090000020FEF7D2F9FFF781F972
:1035A000FFF724F9FFF708F9FFF7C6F8FFF73EF930
:1035B00021E011480068FCF769FE05464FF08B4199
:1035C000FCF726FE04460D49FCF7F0FD0C490860A7
:1035D000094801680BA0FFF73BFB09480068FCF7AE
:1035E0005AFE044622460B460FA0FFF731FB4FF46C
:1035F0007A70FDF7DFFFDCE7000000203333534033
:10360000040000200D0A20546865206375727265FD
:103610006E742041442076616C7565203D203078C1
:1036200025303458200D0A000D0A205468652063A7
:10363000757272656E742041442076616C756520E8
:103640003D2025662056200D0A00000000000000E5
:103650000000000001020304060708090000000042
:103660000102030484360008000000201C00000052
:10367000A82C0008A03600081C000020BC04000094
:10368000B82C00080000000000000000000000004E
:1036900010000000010000000024F4000000000001
:0400000508000131BD
:00000001FF
